{
  "contractName": "ExampleSwapToPrice",
  "abi": [
    {
      "inputs": [
        {
          "internalType": "address",
          "name": "factory_",
          "type": "address"
        },
        {
          "internalType": "contract IUniswapV2Router01",
          "name": "router_",
          "type": "address"
        }
      ],
      "stateMutability": "nonpayable",
      "type": "constructor"
    },
    {
      "inputs": [],
      "name": "factory",
      "outputs": [
        {
          "internalType": "address",
          "name": "",
          "type": "address"
        }
      ],
      "stateMutability": "view",
      "type": "function"
    },
    {
      "inputs": [],
      "name": "router",
      "outputs": [
        {
          "internalType": "contract IUniswapV2Router01",
          "name": "",
          "type": "address"
        }
      ],
      "stateMutability": "view",
      "type": "function"
    },
    {
      "inputs": [
        {
          "internalType": "address",
          "name": "tokenA",
          "type": "address"
        },
        {
          "internalType": "address",
          "name": "tokenB",
          "type": "address"
        },
        {
          "internalType": "uint256",
          "name": "truePriceTokenA",
          "type": "uint256"
        },
        {
          "internalType": "uint256",
          "name": "truePriceTokenB",
          "type": "uint256"
        },
        {
          "internalType": "uint256",
          "name": "maxSpendTokenA",
          "type": "uint256"
        },
        {
          "internalType": "uint256",
          "name": "maxSpendTokenB",
          "type": "uint256"
        },
        {
          "internalType": "address",
          "name": "to",
          "type": "address"
        },
        {
          "internalType": "uint256",
          "name": "deadline",
          "type": "uint256"
        }
      ],
      "name": "swapToPrice",
      "outputs": [],
      "stateMutability": "nonpayable",
      "type": "function"
    }
  ],
  "bytecode": "0x60c060405234801561001057600080fd5b506040516115d93803806115d98339818101604052604081101561003357600080fd5b8101908080519060200190929190805190602001909291905050508173ffffffffffffffffffffffffffffffffffffffff1660a08173ffffffffffffffffffffffffffffffffffffffff1660601b815250508073ffffffffffffffffffffffffffffffffffffffff1660808173ffffffffffffffffffffffffffffffffffffffff1660601b81525050505060805160601c60a05160601c6114e36100f6600039806102a3528061067752508061038d5280610490528061069b52506114e36000f3fe608060405234801561001057600080fd5b50600436106100415760003560e01c8063bef90fd314610046578063c45a0155146100fd578063f887ea4014610147575b600080fd5b6100fb600480360361010081101561005d57600080fd5b81019080803573ffffffffffffffffffffffffffffffffffffffff169060200190929190803573ffffffffffffffffffffffffffffffffffffffff16906020019092919080359060200190929190803590602001909291908035906020019092919080359060200190929190803573ffffffffffffffffffffffffffffffffffffffff16906020019092919080359060200190929190505050610191565b005b610105610675565b604051808273ffffffffffffffffffffffffffffffffffffffff1673ffffffffffffffffffffffffffffffffffffffff16815260200191505060405180910390f35b61014f610699565b604051808273ffffffffffffffffffffffffffffffffffffffff1673ffffffffffffffffffffffffffffffffffffffff16815260200191505060405180910390f35b600086141580156101a3575060008514155b610215576040517f08c379a000000000000000000000000000000000000000000000000000000000815260040180806020018281038252601e8152602001807f4578616d706c6553776170546f50726963653a205a45524f5f5052494345000081525060200191505060405180910390fd5b600084141580610226575060008314155b610298576040517f08c379a000000000000000000000000000000000000000000000000000000000815260040180806020018281038252601e8152602001807f4578616d706c6553776170546f50726963653a205a45524f5f5350454e44000081525060200191505060405180910390fd5b6000806000806102c97f00000000000000000000000000000000000000000000000000000000000000008d8d6106bd565b915091506102d98a8a84846107e6565b809450819550505050506000811161033c576040517f08c379a000000000000000000000000000000000000000000000000000000000815260040180806020018281038252602281526020018061148c6022913960400191505060405180910390fd5b600082610349578561034b565b865b905080821115610359578091505b600083610366578a610368565b8b5b9050600084610377578c610379565b8b5b9050610387823330876108e6565b6103b2827f000000000000000000000000000000000000000000000000000000000000000086610af7565b6060600267ffffffffffffffff811180156103cc57600080fd5b506040519080825280602002602001820160405280156103fb5781602001602082028036833780820191505090505b509050828160008151811061040c57fe5b602002602001019073ffffffffffffffffffffffffffffffffffffffff16908173ffffffffffffffffffffffffffffffffffffffff1681525050818160018151811061045457fe5b602002602001019073ffffffffffffffffffffffffffffffffffffffff16908173ffffffffffffffffffffffffffffffffffffffff16815250507f000000000000000000000000000000000000000000000000000000000000000073ffffffffffffffffffffffffffffffffffffffff166338ed1739866000848c8c6040518663ffffffff1660e01b815260040180868152602001858152602001806020018473ffffffffffffffffffffffffffffffffffffffff1673ffffffffffffffffffffffffffffffffffffffff168152602001838152602001828103825285818151815260200191508051906020019060200280838360005b8381101561056657808201518184015260208101905061054b565b505050509050019650505050505050600060405180830381600087803b15801561058f57600080fd5b505af11580156105a3573d6000803e3d6000fd5b505050506040513d6000823e3d601f19601f8201168201806040525060208110156105cd57600080fd5b81019080805160405193929190846401000000008211156105ed57600080fd5b8382019150602082018581111561060357600080fd5b825186602082028301116401000000008211171561062057600080fd5b8083526020830192505050908051906020019060200280838360005b8381101561065757808201518184015260208101905061063c565b50505050905001604052505050505050505050505050505050505050565b7f000000000000000000000000000000000000000000000000000000000000000081565b7f000000000000000000000000000000000000000000000000000000000000000081565b60008060006106cc8585610cd3565b5090506000806106dd888888610e4a565b73ffffffffffffffffffffffffffffffffffffffff16630902f1ac6040518163ffffffff1660e01b815260040160606040518083038186803b15801561072257600080fd5b505afa158015610736573d6000803e3d6000fd5b505050506040513d606081101561074c57600080fd5b81019080805190602001909291908051906020019092919080519060200190929190505050506dffffffffffffffffffffffffffff1691506dffffffffffffffffffffffffffff1691508273ffffffffffffffffffffffffffffffffffffffff168773ffffffffffffffffffffffffffffffffffffffff16146107d05780826107d3565b81815b8095508196505050505050935093915050565b600080856107f5858786610fa5565b109150600061080d848661108590919063ffffffff16565b9050600061086461085f61082c6103e88561108590919063ffffffff16565b866108375789610839565b8a5b61085a6103e58961084a578d61084c565b8c5b61108590919063ffffffff16565b610fa5565b61111a565b905060006103e58561088a576108856103e88861108590919063ffffffff16565b6108a0565b61089f6103e88961108590919063ffffffff16565b5b816108a757fe5b049050808210156108c457600080809050945094505050506108dd565b6108d7818361129790919063ffffffff16565b93505050505b94509492505050565b600060608573ffffffffffffffffffffffffffffffffffffffff166323b872dd868686604051602401808473ffffffffffffffffffffffffffffffffffffffff1673ffffffffffffffffffffffffffffffffffffffff1681526020018373ffffffffffffffffffffffffffffffffffffffff1673ffffffffffffffffffffffffffffffffffffffff16815260200182815260200193505050506040516020818303038152906040529060e01b6020820180517bffffffffffffffffffffffffffffffffffffffffffffffffffffffff83818316178352505050506040518082805190602001908083835b602083106109f357805182526020820191506020810190506020830392506109d0565b6001836020036101000a0380198251168184511680821785525050505050509050019150506000604051808303816000865af19150503d8060008114610a55576040519150601f19603f3d011682016040523d82523d6000602084013e610a5a565b606091505b5091509150818015610a9a5750600081511480610a995750808060200190516020811015610a8757600080fd5b81019080805190602001909291905050505b5b610aef576040517f08c379a000000000000000000000000000000000000000000000000000000000815260040180806020018281038252603181526020018061140b6031913960400191505060405180910390fd5b505050505050565b600060608473ffffffffffffffffffffffffffffffffffffffff1663095ea7b38585604051602401808373ffffffffffffffffffffffffffffffffffffffff1673ffffffffffffffffffffffffffffffffffffffff168152602001828152602001925050506040516020818303038152906040529060e01b6020820180517bffffffffffffffffffffffffffffffffffffffffffffffffffffffff83818316178352505050506040518082805190602001908083835b60208310610bd05780518252602082019150602081019050602083039250610bad565b6001836020036101000a0380198251168184511680821785525050505050509050019150506000604051808303816000865af19150503d8060008114610c32576040519150601f19603f3d011682016040523d82523d6000602084013e610c37565b606091505b5091509150818015610c775750600081511480610c765750808060200190516020811015610c6457600080fd5b81019080805190602001909291905050505b5b610ccc576040517f08c379a000000000000000000000000000000000000000000000000000000000815260040180806020018281038252602b815260200180611461602b913960400191505060405180910390fd5b5050505050565b6000808273ffffffffffffffffffffffffffffffffffffffff168473ffffffffffffffffffffffffffffffffffffffff161415610d5b576040517f08c379a000000000000000000000000000000000000000000000000000000000815260040180806020018281038252602581526020018061143c6025913960400191505060405180910390fd5b8273ffffffffffffffffffffffffffffffffffffffff168473ffffffffffffffffffffffffffffffffffffffff1610610d95578284610d98565b83835b8092508193505050600073ffffffffffffffffffffffffffffffffffffffff168273ffffffffffffffffffffffffffffffffffffffff161415610e43576040517f08c379a000000000000000000000000000000000000000000000000000000000815260040180806020018281038252601e8152602001807f556e697377617056324c6962726172793a205a45524f5f41444452455353000081525060200191505060405180910390fd5b9250929050565b6000806000610e598585610cd3565b91509150858282604051602001808373ffffffffffffffffffffffffffffffffffffffff1673ffffffffffffffffffffffffffffffffffffffff1660601b81526014018273ffffffffffffffffffffffffffffffffffffffff1673ffffffffffffffffffffffffffffffffffffffff1660601b8152601401925050506040516020818303038152906040528051906020012060405160200180807fff000000000000000000000000000000000000000000000000000000000000008152506001018373ffffffffffffffffffffffffffffffffffffffff1673ffffffffffffffffffffffffffffffffffffffff1660601b8152601401828152602001807f97fe61384d0aed6f145eff143d6773691f987c4147f3a1503ed6305a96d87a56815250602001925050506040516020818303038152906040528051906020012060001c925050509392505050565b6000806000610fb4868661131a565b9150915060008480610fc257fe5b868809905082811115610fd6576001820391505b80830392506000821415610ff857848381610fed57fe5b04935050505061107e565b84821061106d576040517f08c379a000000000000000000000000000000000000000000000000000000000815260040180806020018281038252601a8152602001807f46756c6c4d6174683a2046554c4c4449565f4f564552464c4f5700000000000081525060200191505060405180910390fd5b61107883838761136d565b93505050505b9392505050565b6000808214806110a2575082828385029250828161109f57fe5b04145b611114576040517f08c379a00000000000000000000000000000000000000000000000000000000081526004018080602001828103825260148152602001807f64732d6d6174682d6d756c2d6f766572666c6f7700000000000000000000000081525060200191505060405180910390fd5b92915050565b60008082141561112d5760009050611292565b6000829050600060019050700100000000000000000000000000000000821061115f57608082901c9150604081901b90505b68010000000000000000821061117e57604082901c9150602081901b90505b640100000000821061119957602082901c9150601081901b90505b6201000082106111b257601082901c9150600881901b90505b61010082106111ca57600882901c9150600481901b90505b601082106111e157600482901c9150600281901b90505b600882106111f157600181901b90505b60018185816111fc57fe5b048201901c9050600181858161120e57fe5b048201901c9050600181858161122057fe5b048201901c9050600181858161123257fe5b048201901c9050600181858161124457fe5b048201901c9050600181858161125657fe5b048201901c9050600181858161126857fe5b048201901c9050600081858161127a57fe5b04905080821061128a578061128c565b815b93505050505b919050565b6000828284039150811115611314576040517f08c379a00000000000000000000000000000000000000000000000000000000081526004018080602001828103825260158152602001807f64732d6d6174682d7375622d756e646572666c6f77000000000000000000000081525060200191505060405180910390fd5b92915050565b60008060007fffffffffffffffffffffffffffffffffffffffffffffffffffffffffffffffff8061134757fe5b84860990508385029250828103915082811015611365576001820391505b509250929050565b600080826000038316905080838161138157fe5b04925080858161138d57fe5b049450600181826000038161139e57fe5b0401840285019450600060019050808402600203810290508084026002038102905080840260020381029050808402600203810290508084026002038102905080840260020381029050808402600203810290508084026002038102905080860292505050939250505056fe5472616e7366657248656c7065723a3a7472616e7366657246726f6d3a207472616e7366657246726f6d206661696c6564556e697377617056324c6962726172793a204944454e544943414c5f4144445245535345535472616e7366657248656c7065723a3a73616665417070726f76653a20617070726f7665206661696c65644578616d706c6553776170546f50726963653a205a45524f5f414d4f554e545f494ea2646970667358221220e142e0aed7279bc7a16af2924d4db7ad58d36a039509f3e3f992e836ba6cb74564736f6c63430006060033",
  "immutableReferences": {
    "6580": [
      {
        "length": 32,
        "start": 909
      },
      {
        "length": 32,
        "start": 1168
      },
      {
        "length": 32,
        "start": 1691
      }
    ],
    "6582": [
      {
        "length": 32,
        "start": 675
      },
      {
        "length": 32,
        "start": 1655
      }
    ]
  },
  "source": "pragma solidity =0.6.6;\n\nimport '@uniswap/v2-core/contracts/interfaces/IUniswapV2Pair.sol';\nimport '@uniswap/lib/contracts/libraries/Babylonian.sol';\nimport '@uniswap/lib/contracts/libraries/TransferHelper.sol';\n\nimport '../libraries/UniswapV2LiquidityMathLibrary.sol';\nimport '../interfaces/IERC20.sol';\nimport '../interfaces/IUniswapV2Router01.sol';\nimport '../libraries/SafeMath.sol';\nimport '../libraries/UniswapV2Library.sol';\n\ncontract ExampleSwapToPrice {\n    using SafeMath for uint256;\n\n    IUniswapV2Router01 public immutable router;\n    address public immutable factory;\n\n    constructor(address factory_, IUniswapV2Router01 router_) public {\n        factory = factory_;\n        router = router_;\n    }\n\n    // swaps an amount of either token such that the trade is profit-maximizing, given an external true price\n    // true price is expressed in the ratio of token A to token B\n    // caller must approve this contract to spend whichever token is intended to be swapped\n    function swapToPrice(\n        address tokenA,\n        address tokenB,\n        uint256 truePriceTokenA,\n        uint256 truePriceTokenB,\n        uint256 maxSpendTokenA,\n        uint256 maxSpendTokenB,\n        address to,\n        uint256 deadline\n    ) public {\n        // true price is expressed as a ratio, so both values must be non-zero\n        require(truePriceTokenA != 0 && truePriceTokenB != 0, \"ExampleSwapToPrice: ZERO_PRICE\");\n        // caller can specify 0 for either if they wish to swap in only one direction, but not both\n        require(maxSpendTokenA != 0 || maxSpendTokenB != 0, \"ExampleSwapToPrice: ZERO_SPEND\");\n\n        bool aToB;\n        uint256 amountIn;\n        {\n            (uint256 reserveA, uint256 reserveB) = UniswapV2Library.getReserves(factory, tokenA, tokenB);\n            (aToB, amountIn) = UniswapV2LiquidityMathLibrary.computeProfitMaximizingTrade(\n                truePriceTokenA, truePriceTokenB,\n                reserveA, reserveB\n            );\n        }\n\n        require(amountIn > 0, 'ExampleSwapToPrice: ZERO_AMOUNT_IN');\n\n        // spend up to the allowance of the token in\n        uint256 maxSpend = aToB ? maxSpendTokenA : maxSpendTokenB;\n        if (amountIn > maxSpend) {\n            amountIn = maxSpend;\n        }\n\n        address tokenIn = aToB ? tokenA : tokenB;\n        address tokenOut = aToB ? tokenB : tokenA;\n        TransferHelper.safeTransferFrom(tokenIn, msg.sender, address(this), amountIn);\n        TransferHelper.safeApprove(tokenIn, address(router), amountIn);\n\n        address[] memory path = new address[](2);\n        path[0] = tokenIn;\n        path[1] = tokenOut;\n\n        router.swapExactTokensForTokens(\n            amountIn,\n            0, // amountOutMin: we can skip computing this number because the math is tested\n            path,\n            to,\n            deadline\n        );\n    }\n}\n",
  "sourcePath": "/d/shareSpace/uniswap/v2-periphery/contracts/examples/ExampleSwapToPrice.sol",
  "compiler": {
    "name": "solc",
    "version": "0.6.6+commit.6c089d02.Emscripten.clang"
  },
  "schemaVersion": "3.4.2",
  "updatedAt": "2021-09-21T02:31:53.078Z",
  "devdoc": {
    "methods": {}
  },
  "userdoc": {
    "methods": {}
  }
}