{
	"data": {
		"bytecode": {
			"linkReferences": {},
			"object": "60806040526064600755600260088190556200001d90600a62000b65565b6200002b9061271062000c23565b6009556008546200003e90600a62000b65565b6200004c9061753062000c23565b600a55600854600a62000060919062000b65565b6200006e9061c35062000c23565b600b556008546200008190600a62000b65565b6200009090620186a062000c23565b600c55600854620000a390600a62000b65565b620000b290620f424062000c23565b600d55600854620000c590600a62000b65565b620000d490624c4b4062000c23565b600e55600854620000e790600a62000b65565b620000f59061012c62000c23565b600f556008546200010890600a62000b65565b62000116906103e862000c23565b6010556008546200012990600a62000b65565b6200013790610bb862000c23565b6011556008546200014a90600a62000b65565b620001589061138862000c23565b6012556008546200016b90600a62000b65565b620001799061271062000c23565b6013556008546200018c90600a62000b65565b6200019a90614e2062000c23565b601455348015620001aa57600080fd5b5060405162002c5338038062002c53833981016040819052620001cd9162000923565b620001d8836200043b565b60408051600680825260e082019092526000916020820160c08036833701905050905060018160008151811062000213576200021362000d18565b60200260200101818152505060028160018151811062000237576200023762000d18565b6020026020010181815250506003816002815181106200025b576200025b62000d18565b6020026020010181815250506004816003815181106200027f576200027f62000d18565b602002602001018181525050600581600481518110620002a357620002a362000d18565b602002602001018181525050600681600581518110620002c757620002c762000d18565b602090810291909101015260408051600680825260e08201909252600091816020016020820280368337019050509050613a988160008151811062000310576200031062000d18565b602002602001018181525050612ee08160018151811062000335576200033562000d18565b602002602001018181525050611f40816002815181106200035a576200035a62000d18565b6020026020010181815250506103e8816003815181106200037f576200037f62000d18565b60200260200101818152505060c881600481518110620003a357620003a362000d18565b602002602001018181525050600181600581518110620003c757620003c762000d18565b602002602001018181525050620003f6308383604051806020016040528060008152506200045460201b60201c565b5050600580546001600160a01b039384166001600160a01b03199182161790915560068054929093169181169190911790915560048054909116331790555062000df0565b8051620004509060039060208401906200082d565b5050565b6001600160a01b038416620004ba5760405162461bcd60e51b815260206004820152602160248201527f455243313135353a206d696e7420746f20746865207a65726f206164647265736044820152607360f81b60648201526084015b60405180910390fd5b81518351146200051e5760405162461bcd60e51b815260206004820152602860248201527f455243313135353a2069647320616e6420616d6f756e7473206c656e677468206044820152670dad2e6dac2e8c6d60c31b6064820152608401620004b1565b3360005b8451811015620005c65783818151811062000541576200054162000d18565b602002602001015160008087848151811062000561576200056162000d18565b602002602001015181526020019081526020016000206000886001600160a01b03166001600160a01b031681526020019081526020016000206000828254620005ab919062000b01565b90915550819050620005bd8162000ce4565b91505062000522565b50846001600160a01b031660006001600160a01b0316826001600160a01b03167f4a39dc06d4c0dbc64b70af90fd698a233a518aa5d07e595d983b8c0526c8f7fb87876040516200061992919062000aba565b60405180910390a4620006328160008787878762000641565b5050505050565b505050505050565b62000660846001600160a01b03166200082760201b62000eda1760201c565b15620006395760405163bc197c8160e01b81526001600160a01b0385169063bc197c81906200069c908990899088908890889060040162000a56565b602060405180830381600087803b158015620006b757600080fd5b505af1925050508015620006ea575060408051601f3d908101601f19168201909252620006e791810190620008f0565b60015b620007ab57620006f962000d44565b806308c379a014156200073a57506200071162000d61565b806200071e57506200073c565b8060405162461bcd60e51b8152600401620004b1919062000aec565b505b60405162461bcd60e51b815260206004820152603460248201527f455243313135353a207472616e7366657220746f206e6f6e204552433131353560448201527f526563656976657220696d706c656d656e7465720000000000000000000000006064820152608401620004b1565b6001600160e01b0319811663bc197c8160e01b146200081e5760405162461bcd60e51b815260206004820152602860248201527f455243313135353a204552433131353552656365697665722072656a656374656044820152676420746f6b656e7360c01b6064820152608401620004b1565b50505050505050565b3b151590565b8280546200083b9062000c78565b90600052602060002090601f0160209004810192826200085f5760008555620008aa565b82601f106200087a57805160ff1916838001178555620008aa565b82800160010185558215620008aa579182015b82811115620008aa5782518255916020019190600101906200088d565b50620008b8929150620008bc565b5090565b5b80821115620008b85760008155600101620008bd565b80516001600160a01b0381168114620008eb57600080fd5b919050565b6000602082840312156200090357600080fd5b81516001600160e01b0319811681146200091c57600080fd5b9392505050565b6000806000606084860312156200093957600080fd5b83516001600160401b03808211156200095157600080fd5b818601915086601f8301126200096657600080fd5b8151818111156200097b576200097b62000d2e565b604051915062000996601f8201601f19166020018362000cb5565b808252876020828501011115620009ac57600080fd5b620009bf81602084016020860162000c45565b509350620009d2905060208501620008d3565b9150620009e260408501620008d3565b90509250925092565b600081518084526020808501945080840160005b8381101562000a1d57815187529582019590820190600101620009ff565b509495945050505050565b6000815180845262000a4281602086016020860162000c45565b601f01601f19169290920160200192915050565b6001600160a01b0386811682528516602082015260a06040820181905260009062000a8490830186620009eb565b828103606084015262000a988186620009eb565b9050828103608084015262000aae818562000a28565b98975050505050505050565b60408152600062000acf6040830185620009eb565b828103602084015262000ae38185620009eb565b95945050505050565b6020815260006200091c602083018462000a28565b6000821982111562000b175762000b1762000d02565b500190565b600181815b8085111562000b5d57816000190482111562000b415762000b4162000d02565b8085161562000b4f57918102915b93841c939080029062000b21565b509250929050565b60006200091c838360008262000b7e5750600162000c1d565b8162000b8d5750600062000c1d565b816001811462000ba6576002811462000bb15762000bd1565b600191505062000c1d565b60ff84111562000bc55762000bc562000d02565b50506001821b62000c1d565b5060208310610133831016604e8410600b841016171562000bf6575081810a62000c1d565b62000c02838362000b1c565b806000190482111562000c195762000c1962000d02565b0290505b92915050565b600081600019048311821515161562000c405762000c4062000d02565b500290565b60005b8381101562000c6257818101518382015260200162000c48565b8381111562000c72576000848401525b50505050565b600181811c9082168062000c8d57607f821691505b6020821081141562000caf57634e487b7160e01b600052602260045260246000fd5b50919050565b601f8201601f191681016001600160401b038111828210171562000cdd5762000cdd62000d2e565b6040525050565b600060001982141562000cfb5762000cfb62000d02565b5060010190565b634e487b7160e01b600052601160045260246000fd5b634e487b7160e01b600052603260045260246000fd5b634e487b7160e01b600052604160045260246000fd5b600060033d111562000d5e5760046000803e5060005160e01c5b90565b600060443d101562000d705790565b6040516003193d81016004833e81513d6001600160401b03808311602484018310171562000da057505050505090565b828501915081518181111562000db95750505050505090565b843d870101602082850101111562000dd45750505050505090565b62000de56020828601018762000cb5565b509095945050505050565b611e538062000e006000396000f3fe608060405234801561001057600080fd5b50600436106101a85760003560e01c80636ced64e0116100f9578063c434439f11610097578063f1dbda5e11610071578063f1dbda5e146103b1578063f242432a146103ba578063fcd81503146103cd578063fe8c6d33146103e057600080fd5b8063c434439f14610359578063d8fc651914610362578063e985e9c51461037557600080fd5b80638da5cb5b116100d35780638da5cb5b14610321578063a22cb46514610334578063a36dc50714610347578063b47f0bd41461035057600080fd5b80636ced64e014610307578063713a88d61461030f57806382b4681d1461031857600080fd5b80633b8abcba116101665780634e1273f4116101405780634e1273f4146102c25780635abea7dc146102e25780635ca5a3f4146102f55780635ffdb139146102fe57600080fd5b80633b8abcba1461023d5780634312d1891461028e5780634d709adf1461029757600080fd5b8062fdd58e146101ad57806301e1200e146101d357806301ffc9a7146101dc5780630e89341c146101ff5780631ca2bd881461021f5780632eb2c2d614610228575b600080fd5b6101c06101bb366004611827565b6103e9565b6040519081526020015b60405180910390f35b6101c0600b5481565b6101ef6101ea36600461193f565b610483565b60405190151581526020016101ca565b61021261020d366004611979565b6104d3565b6040516101ca9190611b4e565b6101c0600a5481565b61023b6102363660046116e1565b610567565b005b61027161024b36600461168c565b600260208190526000918252604090912080546001820154919092015460ff9092169183565b6040805193151584526020840192909252908201526060016101ca565b6101c060095481565b6006546102aa906001600160a01b031681565b6040516001600160a01b0390911681526020016101ca565b6102d56102d0366004611851565b6105fe565b6040516101ca9190611b0d565b6005546102aa906001600160a01b031681565b6101c0600d5481565b6101c060145481565b6101ef610728565b6101c060105481565b6101c060125481565b6004546102aa906001600160a01b031681565b61023b6103423660046117f0565b6108d0565b6101c0600f5481565b6101c060135481565b6101c0600e5481565b6101ef610370366004611827565b6109a7565b6101ef6103833660046116ae565b6001600160a01b03918216600090815260016020908152604080832093909416825291909152205460ff1690565b6101c060115481565b61023b6103c836600461178b565b610ddc565b6101ef6103db366004611992565b610e63565b6101c0600c5481565b60006001600160a01b03831661045a5760405162461bcd60e51b815260206004820152602b60248201527f455243313135353a2062616c616e636520717565727920666f7220746865207a60448201526a65726f206164647265737360a81b60648201526084015b60405180910390fd5b506000818152602081815260408083206001600160a01b03861684529091529020545b92915050565b60006001600160e01b0319821663245fdbb760e21b14806104b457506001600160e01b031982166303a24d0760e21b145b8061047d57506301ffc9a760e01b6001600160e01b031983161461047d565b6060600380546104e290611c8b565b80601f016020809104026020016040519081016040528092919081815260200182805461050e90611c8b565b801561055b5780601f106105305761010080835404028352916020019161055b565b820191906000526020600020905b81548152906001019060200180831161053e57829003601f168201915b50505050509050919050565b6001600160a01b03851633148061058357506105838533610383565b6105ea5760405162461bcd60e51b815260206004820152603260248201527f455243313135353a207472616e736665722063616c6c6572206973206e6f74206044820152711bdddb995c881b9bdc88185c1c1c9bdd995960721b6064820152608401610451565b6105f78585858585610ee0565b5050505050565b606081518351146106635760405162461bcd60e51b815260206004820152602960248201527f455243313135353a206163636f756e747320616e6420696473206c656e677468604482015268040dad2e6dac2e8c6d60bb1b6064820152608401610451565b6000835167ffffffffffffffff81111561067f5761067f611d3a565b6040519080825280602002602001820160405280156106a8578160200160208202803683370190505b50905060005b8451811015610720576106f38582815181106106cc576106cc611d24565b60200260200101518583815181106106e6576106e6611d24565b60200260200101516103e9565b82828151811061070557610705611d24565b602090810291909101015261071981611cf3565b90506106ae565b509392505050565b336000908152600260208190526040822001546007546107489043611c74565b116107895760405162461bcd60e51b81526020600482015260116024820152707761697420666f7220676170426c6f636b60781b6044820152606401610451565b3360009081526002602052604090205460ff166107dd5760405162461bcd60e51b81526020600482015260126024820152716973506c65646765206e656564207472756560701b6044820152606401610451565b336000818152600260205260408082206001018054929055600654905163a9059cbb60e01b815260048101939093526024830182905290916001600160a01b039091169063a9059cbb90604401602060405180830381600087803b15801561084457600080fd5b505af1158015610858573d6000803e3d6000fd5b505050506040513d601f19601f8201168201806040525081019061087c9190611922565b6108c85760405162461bcd60e51b815260206004820152601f60248201527f77697468647261774e6674207472616e7366657246726f6d206661696c6564006044820152606401610451565b600191505090565b336001600160a01b038316141561093b5760405162461bcd60e51b815260206004820152602960248201527f455243313135353a2073657474696e6720617070726f76616c20737461747573604482015268103337b91039b2b63360b91b6064820152608401610451565b3360008181526001602090815260408083206001600160a01b03871680855290835292819020805460ff191686151590811790915590519081529192917f17307eab39ab6107e8899845ad3d59bd9653f200f220920489ca2b5937696c31910160405180910390a35050565b6004546000906001600160a01b0316331480156109c357508115155b156109da576109d283836110bd565b50600161047d565b600554604051636386c1c760e01b8152336004820152600091829182916001600160a01b031690636386c1c79060240160606040518083038186803b158015610a2257600080fd5b505afa158015610a36573d6000803e3d6000fd5b505050506040513d601f19601f82011682018060405250810190610a5a91906119b4565b33600090815260026020526040902054929550909350915060ff1615610ab65760405162461bcd60e51b8152602060048201526011602482015270185b1c9958591e4818dbdb1b1958dd1959607a1b6044820152606401610451565b600954831015610b135760405162461bcd60e51b815260206004820152602260248201527f73776170557364416d6f756e74206c657373207468616e20737761704c6576656044820152616c3160f01b6064820152608401610451565b600f54821015610b745760405162461bcd60e51b815260206004820152602660248201527f706c65646765557364416d6f756e74206c657373207468616e20706c656467656044820152654c6576656c3160d01b6064820152608401610451565b6000806009548510158015610b8a5750600a5485105b15610b9457600191505b600a548510158015610ba75750600b5485105b15610bb157600291505b600b548510158015610bc45750600c5485105b15610bce57600391505b600c548510158015610be15750600d5485105b15610beb57600491505b600d548510158015610bfe5750600e5485105b15610c0857600591505b600e548510610c1657600691505b600f548410158015610c29575060105484105b15610c32575060015b6010548410158015610c45575060115484105b15610c4e575060025b6011548410158015610c61575060125484105b15610c6a575060035b6012548410158015610c7d575060135484105b15610c86575060045b6013548410158015610c99575060145484105b15610ca2575060055b6014548410610caf575060065b6000818311610cbe5782610cc0565b815b33600081815260026020819052604091829020805460ff19166001908117825581018a90554391015560065490516323b872dd60e01b81526004810192909252306024830152604482018790529192506001600160a01b03909116906323b872dd90606401602060405180830381600087803b158015610d3f57600080fd5b505af1158015610d53573d6000803e3d6000fd5b505050506040513d601f19601f82011682018060405250810190610d779190611922565b610dc35760405162461bcd60e51b815260206004820152601f60248201527f77697468647261774e6674207472616e7366657246726f6d206661696c6564006044820152606401610451565b610dcd89826110bd565b50600198975050505050505050565b6001600160a01b038516331480610df85750610df88533610383565b610e565760405162461bcd60e51b815260206004820152602960248201527f455243313135353a2063616c6c6572206973206e6f74206f776e6572206e6f7260448201526808185c1c1c9bdd995960ba1b6064820152608401610451565b6105f785858585856110de565b6004546000906001600160a01b03163314610eb65760405162461bcd60e51b815260206004820152601360248201527236b9b39739b2b73232b910109e9037bbb732b960691b6044820152606401610451565b610ed130848460405180602001604052806000815250611204565b50600192915050565b3b151590565b8151835114610f425760405162461bcd60e51b815260206004820152602860248201527f455243313135353a2069647320616e6420616d6f756e7473206c656e677468206044820152670dad2e6dac2e8c6d60c31b6064820152608401610451565b6001600160a01b038416610f685760405162461bcd60e51b815260040161045190611ba9565b3360005b845181101561104f576000858281518110610f8957610f89611d24565b602002602001015190506000858381518110610fa757610fa7611d24565b602090810291909101810151600084815280835260408082206001600160a01b038e168352909352919091205490915081811015610ff75760405162461bcd60e51b815260040161045190611bee565b6000838152602081815260408083206001600160a01b038e8116855292528083208585039055908b16825281208054849290611034908490611c5c565b925050819055505050508061104890611cf3565b9050610f6c565b50846001600160a01b0316866001600160a01b0316826001600160a01b03167f4a39dc06d4c0dbc64b70af90fd698a233a518aa5d07e595d983b8c0526c8f7fb878760405161109f929190611b20565b60405180910390a46110b5818787878787611305565b505050505050565b6110da3083836001604051806020016040528060008152506110de565b5050565b6001600160a01b0384166111045760405162461bcd60e51b815260040161045190611ba9565b3361111d81878761111488611470565b6105f788611470565b6000848152602081815260408083206001600160a01b038a1684529091529020548381101561115e5760405162461bcd60e51b815260040161045190611bee565b6000858152602081815260408083206001600160a01b038b811685529252808320878503905590881682528120805486929061119b908490611c5c565b909155505060408051868152602081018690526001600160a01b03808916928a821692918616917fc3d58168c5ae7397731d063d5bbf3d657854427343f4c083240f7aacaa2d0f62910160405180910390a46111fb8288888888886114bb565b50505050505050565b6001600160a01b0384166112645760405162461bcd60e51b815260206004820152602160248201527f455243313135353a206d696e7420746f20746865207a65726f206164647265736044820152607360f81b6064820152608401610451565b336112758160008761111488611470565b6000848152602081815260408083206001600160a01b0389168452909152812080548592906112a5908490611c5c565b909155505060408051858152602081018590526001600160a01b0380881692600092918516917fc3d58168c5ae7397731d063d5bbf3d657854427343f4c083240f7aacaa2d0f62910160405180910390a46105f7816000878787876114bb565b6001600160a01b0384163b156110b55760405163bc197c8160e01b81526001600160a01b0385169063bc197c81906113499089908990889088908890600401611a6a565b602060405180830381600087803b15801561136357600080fd5b505af1925050508015611393575060408051601f3d908101601f191682019092526113909181019061195c565b60015b6114405761139f611d50565b806308c379a014156113d957506113b4611d6c565b806113bf57506113db565b8060405162461bcd60e51b81526004016104519190611b4e565b505b60405162461bcd60e51b815260206004820152603460248201527f455243313135353a207472616e7366657220746f206e6f6e20455243313135356044820152732932b1b2b4bb32b91034b6b83632b6b2b73a32b960611b6064820152608401610451565b6001600160e01b0319811663bc197c8160e01b146111fb5760405162461bcd60e51b815260040161045190611b61565b604080516001808252818301909252606091600091906020808301908036833701905050905082816000815181106114aa576114aa611d24565b602090810291909101015292915050565b6001600160a01b0384163b156110b55760405163f23a6e6160e01b81526001600160a01b0385169063f23a6e61906114ff9089908990889088908890600401611ac8565b602060405180830381600087803b15801561151957600080fd5b505af1925050508015611549575060408051601f3d908101601f191682019092526115469181019061195c565b60015b6115555761139f611d50565b6001600160e01b0319811663f23a6e6160e01b146111fb5760405162461bcd60e51b815260040161045190611b61565b80356001600160a01b038116811461159c57600080fd5b919050565b600082601f8301126115b257600080fd5b813560206115bf82611c38565b6040516115cc8282611cc6565b8381528281019150858301600585901b870184018810156115ec57600080fd5b60005b8581101561160b578135845292840192908401906001016115ef565b5090979650505050505050565b600082601f83011261162957600080fd5b813567ffffffffffffffff81111561164357611643611d3a565b60405161165a601f8301601f191660200182611cc6565b81815284602083860101111561166f57600080fd5b816020850160208301376000918101602001919091529392505050565b60006020828403121561169e57600080fd5b6116a782611585565b9392505050565b600080604083850312156116c157600080fd5b6116ca83611585565b91506116d860208401611585565b90509250929050565b600080600080600060a086880312156116f957600080fd5b61170286611585565b945061171060208701611585565b9350604086013567ffffffffffffffff8082111561172d57600080fd5b61173989838a016115a1565b9450606088013591508082111561174f57600080fd5b61175b89838a016115a1565b9350608088013591508082111561177157600080fd5b5061177e88828901611618565b9150509295509295909350565b600080600080600060a086880312156117a357600080fd5b6117ac86611585565b94506117ba60208701611585565b93506040860135925060608601359150608086013567ffffffffffffffff8111156117e457600080fd5b61177e88828901611618565b6000806040838503121561180357600080fd5b61180c83611585565b9150602083013561181c81611df6565b809150509250929050565b6000806040838503121561183a57600080fd5b61184383611585565b946020939093013593505050565b6000806040838503121561186457600080fd5b823567ffffffffffffffff8082111561187c57600080fd5b818501915085601f83011261189057600080fd5b8135602061189d82611c38565b6040516118aa8282611cc6565b8381528281019150858301600585901b870184018b10156118ca57600080fd5b600096505b848710156118f4576118e081611585565b8352600196909601959183019183016118cf565b509650508601359250508082111561190b57600080fd5b50611918858286016115a1565b9150509250929050565b60006020828403121561193457600080fd5b81516116a781611df6565b60006020828403121561195157600080fd5b81356116a781611e07565b60006020828403121561196e57600080fd5b81516116a781611e07565b60006020828403121561198b57600080fd5b5035919050565b600080604083850312156119a557600080fd5b50508035926020909101359150565b6000806000606084860312156119c957600080fd5b8351925060208401519150604084015190509250925092565b600081518084526020808501945080840160005b83811015611a12578151875295820195908201906001016119f6565b509495945050505050565b6000815180845260005b81811015611a4357602081850181015186830182015201611a27565b81811115611a55576000602083870101525b50601f01601f19169290920160200192915050565b6001600160a01b0386811682528516602082015260a060408201819052600090611a96908301866119e2565b8281036060840152611aa881866119e2565b90508281036080840152611abc8185611a1d565b98975050505050505050565b6001600160a01b03868116825285166020820152604081018490526060810183905260a060808201819052600090611b0290830184611a1d565b979650505050505050565b6020815260006116a760208301846119e2565b604081526000611b3360408301856119e2565b8281036020840152611b4581856119e2565b95945050505050565b6020815260006116a76020830184611a1d565b60208082526028908201527f455243313135353a204552433131353552656365697665722072656a656374656040820152676420746f6b656e7360c01b606082015260800190565b60208082526025908201527f455243313135353a207472616e7366657220746f20746865207a65726f206164604082015264647265737360d81b606082015260800190565b6020808252602a908201527f455243313135353a20696e73756666696369656e742062616c616e636520666f60408201526939103a3930b739b332b960b11b606082015260800190565b600067ffffffffffffffff821115611c5257611c52611d3a565b5060051b60200190565b60008219821115611c6f57611c6f611d0e565b500190565b600082821015611c8657611c86611d0e565b500390565b600181811c90821680611c9f57607f821691505b60208210811415611cc057634e487b7160e01b600052602260045260246000fd5b50919050565b601f8201601f1916810167ffffffffffffffff81118282101715611cec57611cec611d3a565b6040525050565b6000600019821415611d0757611d07611d0e565b5060010190565b634e487b7160e01b600052601160045260246000fd5b634e487b7160e01b600052603260045260246000fd5b634e487b7160e01b600052604160045260246000fd5b600060033d1115611d695760046000803e5060005160e01c5b90565b600060443d1015611d7a5790565b6040516003193d81016004833e81513d67ffffffffffffffff8160248401118184111715611daa57505050505090565b8285019150815181811115611dc25750505050505090565b843d8701016020828501011115611ddc5750505050505090565b611deb60208286010187611cc6565b509095945050505050565b8015158114611e0457600080fd5b50565b6001600160e01b031981168114611e0457600080fdfea26469706673582212205ad0a3de1bc5ca1b71db6dd7794e79c27c0386c0d30165f0fbec03ac9c8f813164736f6c63430008070033",
			"opcodes": "PUSH1 0x80 PUSH1 0x40 MSTORE PUSH1 0x64 PUSH1 0x7 SSTORE PUSH1 0x2 PUSH1 0x8 DUP2 SWAP1 SSTORE PUSH3 0x1D SWAP1 PUSH1 0xA PUSH3 0xB65 JUMP JUMPDEST PUSH3 0x2B SWAP1 PUSH2 0x2710 PUSH3 0xC23 JUMP JUMPDEST PUSH1 0x9 SSTORE PUSH1 0x8 SLOAD PUSH3 0x3E SWAP1 PUSH1 0xA PUSH3 0xB65 JUMP JUMPDEST PUSH3 0x4C SWAP1 PUSH2 0x7530 PUSH3 0xC23 JUMP JUMPDEST PUSH1 0xA SSTORE PUSH1 0x8 SLOAD PUSH1 0xA PUSH3 0x60 SWAP2 SWAP1 PUSH3 0xB65 JUMP JUMPDEST PUSH3 0x6E SWAP1 PUSH2 0xC350 PUSH3 0xC23 JUMP JUMPDEST PUSH1 0xB SSTORE PUSH1 0x8 SLOAD PUSH3 0x81 SWAP1 PUSH1 0xA PUSH3 0xB65 JUMP JUMPDEST PUSH3 0x90 SWAP1 PUSH3 0x186A0 PUSH3 0xC23 JUMP JUMPDEST PUSH1 0xC SSTORE PUSH1 0x8 SLOAD PUSH3 0xA3 SWAP1 PUSH1 0xA PUSH3 0xB65 JUMP JUMPDEST PUSH3 0xB2 SWAP1 PUSH3 0xF4240 PUSH3 0xC23 JUMP JUMPDEST PUSH1 0xD SSTORE PUSH1 0x8 SLOAD PUSH3 0xC5 SWAP1 PUSH1 0xA PUSH3 0xB65 JUMP JUMPDEST PUSH3 0xD4 SWAP1 PUSH3 0x4C4B40 PUSH3 0xC23 JUMP JUMPDEST PUSH1 0xE SSTORE PUSH1 0x8 SLOAD PUSH3 0xE7 SWAP1 PUSH1 0xA PUSH3 0xB65 JUMP JUMPDEST PUSH3 0xF5 SWAP1 PUSH2 0x12C PUSH3 0xC23 JUMP JUMPDEST PUSH1 0xF SSTORE PUSH1 0x8 SLOAD PUSH3 0x108 SWAP1 PUSH1 0xA PUSH3 0xB65 JUMP JUMPDEST PUSH3 0x116 SWAP1 PUSH2 0x3E8 PUSH3 0xC23 JUMP JUMPDEST PUSH1 0x10 SSTORE PUSH1 0x8 SLOAD PUSH3 0x129 SWAP1 PUSH1 0xA PUSH3 0xB65 JUMP JUMPDEST PUSH3 0x137 SWAP1 PUSH2 0xBB8 PUSH3 0xC23 JUMP JUMPDEST PUSH1 0x11 SSTORE PUSH1 0x8 SLOAD PUSH3 0x14A SWAP1 PUSH1 0xA PUSH3 0xB65 JUMP JUMPDEST PUSH3 0x158 SWAP1 PUSH2 0x1388 PUSH3 0xC23 JUMP JUMPDEST PUSH1 0x12 SSTORE PUSH1 0x8 SLOAD PUSH3 0x16B SWAP1 PUSH1 0xA PUSH3 0xB65 JUMP JUMPDEST PUSH3 0x179 SWAP1 PUSH2 0x2710 PUSH3 0xC23 JUMP JUMPDEST PUSH1 0x13 SSTORE PUSH1 0x8 SLOAD PUSH3 0x18C SWAP1 PUSH1 0xA PUSH3 0xB65 JUMP JUMPDEST PUSH3 0x19A SWAP1 PUSH2 0x4E20 PUSH3 0xC23 JUMP JUMPDEST PUSH1 0x14 SSTORE CALLVALUE DUP1 ISZERO PUSH3 0x1AA JUMPI PUSH1 0x0 DUP1 REVERT JUMPDEST POP PUSH1 0x40 MLOAD PUSH3 0x2C53 CODESIZE SUB DUP1 PUSH3 0x2C53 DUP4 CODECOPY DUP2 ADD PUSH1 0x40 DUP2 SWAP1 MSTORE PUSH3 0x1CD SWAP2 PUSH3 0x923 JUMP JUMPDEST PUSH3 0x1D8 DUP4 PUSH3 0x43B JUMP JUMPDEST PUSH1 0x40 DUP1 MLOAD PUSH1 0x6 DUP1 DUP3 MSTORE PUSH1 0xE0 DUP3 ADD SWAP1 SWAP3 MSTORE PUSH1 0x0 SWAP2 PUSH1 0x20 DUP3 ADD PUSH1 0xC0 DUP1 CALLDATASIZE DUP4 CALLDATACOPY ADD SWAP1 POP POP SWAP1 POP PUSH1 0x1 DUP2 PUSH1 0x0 DUP2 MLOAD DUP2 LT PUSH3 0x213 JUMPI PUSH3 0x213 PUSH3 0xD18 JUMP JUMPDEST PUSH1 0x20 MUL PUSH1 0x20 ADD ADD DUP2 DUP2 MSTORE POP POP PUSH1 0x2 DUP2 PUSH1 0x1 DUP2 MLOAD DUP2 LT PUSH3 0x237 JUMPI PUSH3 0x237 PUSH3 0xD18 JUMP JUMPDEST PUSH1 0x20 MUL PUSH1 0x20 ADD ADD DUP2 DUP2 MSTORE POP POP PUSH1 0x3 DUP2 PUSH1 0x2 DUP2 MLOAD DUP2 LT PUSH3 0x25B JUMPI PUSH3 0x25B PUSH3 0xD18 JUMP JUMPDEST PUSH1 0x20 MUL PUSH1 0x20 ADD ADD DUP2 DUP2 MSTORE POP POP PUSH1 0x4 DUP2 PUSH1 0x3 DUP2 MLOAD DUP2 LT PUSH3 0x27F JUMPI PUSH3 0x27F PUSH3 0xD18 JUMP JUMPDEST PUSH1 0x20 MUL PUSH1 0x20 ADD ADD DUP2 DUP2 MSTORE POP POP PUSH1 0x5 DUP2 PUSH1 0x4 DUP2 MLOAD DUP2 LT PUSH3 0x2A3 JUMPI PUSH3 0x2A3 PUSH3 0xD18 JUMP JUMPDEST PUSH1 0x20 MUL PUSH1 0x20 ADD ADD DUP2 DUP2 MSTORE POP POP PUSH1 0x6 DUP2 PUSH1 0x5 DUP2 MLOAD DUP2 LT PUSH3 0x2C7 JUMPI PUSH3 0x2C7 PUSH3 0xD18 JUMP JUMPDEST PUSH1 0x20 SWAP1 DUP2 MUL SWAP2 SWAP1 SWAP2 ADD ADD MSTORE PUSH1 0x40 DUP1 MLOAD PUSH1 0x6 DUP1 DUP3 MSTORE PUSH1 0xE0 DUP3 ADD SWAP1 SWAP3 MSTORE PUSH1 0x0 SWAP2 DUP2 PUSH1 0x20 ADD PUSH1 0x20 DUP3 MUL DUP1 CALLDATASIZE DUP4 CALLDATACOPY ADD SWAP1 POP POP SWAP1 POP PUSH2 0x3A98 DUP2 PUSH1 0x0 DUP2 MLOAD DUP2 LT PUSH3 0x310 JUMPI PUSH3 0x310 PUSH3 0xD18 JUMP JUMPDEST PUSH1 0x20 MUL PUSH1 0x20 ADD ADD DUP2 DUP2 MSTORE POP POP PUSH2 0x2EE0 DUP2 PUSH1 0x1 DUP2 MLOAD DUP2 LT PUSH3 0x335 JUMPI PUSH3 0x335 PUSH3 0xD18 JUMP JUMPDEST PUSH1 0x20 MUL PUSH1 0x20 ADD ADD DUP2 DUP2 MSTORE POP POP PUSH2 0x1F40 DUP2 PUSH1 0x2 DUP2 MLOAD DUP2 LT PUSH3 0x35A JUMPI PUSH3 0x35A PUSH3 0xD18 JUMP JUMPDEST PUSH1 0x20 MUL PUSH1 0x20 ADD ADD DUP2 DUP2 MSTORE POP POP PUSH2 0x3E8 DUP2 PUSH1 0x3 DUP2 MLOAD DUP2 LT PUSH3 0x37F JUMPI PUSH3 0x37F PUSH3 0xD18 JUMP JUMPDEST PUSH1 0x20 MUL PUSH1 0x20 ADD ADD DUP2 DUP2 MSTORE POP POP PUSH1 0xC8 DUP2 PUSH1 0x4 DUP2 MLOAD DUP2 LT PUSH3 0x3A3 JUMPI PUSH3 0x3A3 PUSH3 0xD18 JUMP JUMPDEST PUSH1 0x20 MUL PUSH1 0x20 ADD ADD DUP2 DUP2 MSTORE POP POP PUSH1 0x1 DUP2 PUSH1 0x5 DUP2 MLOAD DUP2 LT PUSH3 0x3C7 JUMPI PUSH3 0x3C7 PUSH3 0xD18 JUMP JUMPDEST PUSH1 0x20 MUL PUSH1 0x20 ADD ADD DUP2 DUP2 MSTORE POP POP PUSH3 0x3F6 ADDRESS DUP4 DUP4 PUSH1 0x40 MLOAD DUP1 PUSH1 0x20 ADD PUSH1 0x40 MSTORE DUP1 PUSH1 0x0 DUP2 MSTORE POP PUSH3 0x454 PUSH1 0x20 SHL PUSH1 0x20 SHR JUMP JUMPDEST POP POP PUSH1 0x5 DUP1 SLOAD PUSH1 0x1 PUSH1 0x1 PUSH1 0xA0 SHL SUB SWAP4 DUP5 AND PUSH1 0x1 PUSH1 0x1 PUSH1 0xA0 SHL SUB NOT SWAP2 DUP3 AND OR SWAP1 SWAP2 SSTORE PUSH1 0x6 DUP1 SLOAD SWAP3 SWAP1 SWAP4 AND SWAP2 DUP2 AND SWAP2 SWAP1 SWAP2 OR SWAP1 SWAP2 SSTORE PUSH1 0x4 DUP1 SLOAD SWAP1 SWAP2 AND CALLER OR SWAP1 SSTORE POP PUSH3 0xDF0 JUMP JUMPDEST DUP1 MLOAD PUSH3 0x450 SWAP1 PUSH1 0x3 SWAP1 PUSH1 0x20 DUP5 ADD SWAP1 PUSH3 0x82D JUMP JUMPDEST POP POP JUMP JUMPDEST PUSH1 0x1 PUSH1 0x1 PUSH1 0xA0 SHL SUB DUP5 AND PUSH3 0x4BA JUMPI PUSH1 0x40 MLOAD PUSH3 0x461BCD PUSH1 0xE5 SHL DUP2 MSTORE PUSH1 0x20 PUSH1 0x4 DUP3 ADD MSTORE PUSH1 0x21 PUSH1 0x24 DUP3 ADD MSTORE PUSH32 0x455243313135353A206D696E7420746F20746865207A65726F20616464726573 PUSH1 0x44 DUP3 ADD MSTORE PUSH1 0x73 PUSH1 0xF8 SHL PUSH1 0x64 DUP3 ADD MSTORE PUSH1 0x84 ADD JUMPDEST PUSH1 0x40 MLOAD DUP1 SWAP2 SUB SWAP1 REVERT JUMPDEST DUP2 MLOAD DUP4 MLOAD EQ PUSH3 0x51E JUMPI PUSH1 0x40 MLOAD PUSH3 0x461BCD PUSH1 0xE5 SHL DUP2 MSTORE PUSH1 0x20 PUSH1 0x4 DUP3 ADD MSTORE PUSH1 0x28 PUSH1 0x24 DUP3 ADD MSTORE PUSH32 0x455243313135353A2069647320616E6420616D6F756E7473206C656E67746820 PUSH1 0x44 DUP3 ADD MSTORE PUSH8 0xDAD2E6DAC2E8C6D PUSH1 0xC3 SHL PUSH1 0x64 DUP3 ADD MSTORE PUSH1 0x84 ADD PUSH3 0x4B1 JUMP JUMPDEST CALLER PUSH1 0x0 JUMPDEST DUP5 MLOAD DUP2 LT ISZERO PUSH3 0x5C6 JUMPI DUP4 DUP2 DUP2 MLOAD DUP2 LT PUSH3 0x541 JUMPI PUSH3 0x541 PUSH3 0xD18 JUMP JUMPDEST PUSH1 0x20 MUL PUSH1 0x20 ADD ADD MLOAD PUSH1 0x0 DUP1 DUP8 DUP5 DUP2 MLOAD DUP2 LT PUSH3 0x561 JUMPI PUSH3 0x561 PUSH3 0xD18 JUMP JUMPDEST PUSH1 0x20 MUL PUSH1 0x20 ADD ADD MLOAD DUP2 MSTORE PUSH1 0x20 ADD SWAP1 DUP2 MSTORE PUSH1 0x20 ADD PUSH1 0x0 KECCAK256 PUSH1 0x0 DUP9 PUSH1 0x1 PUSH1 0x1 PUSH1 0xA0 SHL SUB AND PUSH1 0x1 PUSH1 0x1 PUSH1 0xA0 SHL SUB AND DUP2 MSTORE PUSH1 0x20 ADD SWAP1 DUP2 MSTORE PUSH1 0x20 ADD PUSH1 0x0 KECCAK256 PUSH1 0x0 DUP3 DUP3 SLOAD PUSH3 0x5AB SWAP2 SWAP1 PUSH3 0xB01 JUMP JUMPDEST SWAP1 SWAP2 SSTORE POP DUP2 SWAP1 POP PUSH3 0x5BD DUP2 PUSH3 0xCE4 JUMP JUMPDEST SWAP2 POP POP PUSH3 0x522 JUMP JUMPDEST POP DUP5 PUSH1 0x1 PUSH1 0x1 PUSH1 0xA0 SHL SUB AND PUSH1 0x0 PUSH1 0x1 PUSH1 0x1 PUSH1 0xA0 SHL SUB AND DUP3 PUSH1 0x1 PUSH1 0x1 PUSH1 0xA0 SHL SUB AND PUSH32 0x4A39DC06D4C0DBC64B70AF90FD698A233A518AA5D07E595D983B8C0526C8F7FB DUP8 DUP8 PUSH1 0x40 MLOAD PUSH3 0x619 SWAP3 SWAP2 SWAP1 PUSH3 0xABA JUMP JUMPDEST PUSH1 0x40 MLOAD DUP1 SWAP2 SUB SWAP1 LOG4 PUSH3 0x632 DUP2 PUSH1 0x0 DUP8 DUP8 DUP8 DUP8 PUSH3 0x641 JUMP JUMPDEST POP POP POP POP POP JUMP JUMPDEST POP POP POP POP POP POP JUMP JUMPDEST PUSH3 0x660 DUP5 PUSH1 0x1 PUSH1 0x1 PUSH1 0xA0 SHL SUB AND PUSH3 0x827 PUSH1 0x20 SHL PUSH3 0xEDA OR PUSH1 0x20 SHR JUMP JUMPDEST ISZERO PUSH3 0x639 JUMPI PUSH1 0x40 MLOAD PUSH4 0xBC197C81 PUSH1 0xE0 SHL DUP2 MSTORE PUSH1 0x1 PUSH1 0x1 PUSH1 0xA0 SHL SUB DUP6 AND SWAP1 PUSH4 0xBC197C81 SWAP1 PUSH3 0x69C SWAP1 DUP10 SWAP1 DUP10 SWAP1 DUP9 SWAP1 DUP9 SWAP1 DUP9 SWAP1 PUSH1 0x4 ADD PUSH3 0xA56 JUMP JUMPDEST PUSH1 0x20 PUSH1 0x40 MLOAD DUP1 DUP4 SUB DUP2 PUSH1 0x0 DUP8 DUP1 EXTCODESIZE ISZERO DUP1 ISZERO PUSH3 0x6B7 JUMPI PUSH1 0x0 DUP1 REVERT JUMPDEST POP GAS CALL SWAP3 POP POP POP DUP1 ISZERO PUSH3 0x6EA JUMPI POP PUSH1 0x40 DUP1 MLOAD PUSH1 0x1F RETURNDATASIZE SWAP1 DUP2 ADD PUSH1 0x1F NOT AND DUP3 ADD SWAP1 SWAP3 MSTORE PUSH3 0x6E7 SWAP2 DUP2 ADD SWAP1 PUSH3 0x8F0 JUMP JUMPDEST PUSH1 0x1 JUMPDEST PUSH3 0x7AB JUMPI PUSH3 0x6F9 PUSH3 0xD44 JUMP JUMPDEST DUP1 PUSH4 0x8C379A0 EQ ISZERO PUSH3 0x73A JUMPI POP PUSH3 0x711 PUSH3 0xD61 JUMP JUMPDEST DUP1 PUSH3 0x71E JUMPI POP PUSH3 0x73C JUMP JUMPDEST DUP1 PUSH1 0x40 MLOAD PUSH3 0x461BCD PUSH1 0xE5 SHL DUP2 MSTORE PUSH1 0x4 ADD PUSH3 0x4B1 SWAP2 SWAP1 PUSH3 0xAEC JUMP JUMPDEST POP JUMPDEST PUSH1 0x40 MLOAD PUSH3 0x461BCD PUSH1 0xE5 SHL DUP2 MSTORE PUSH1 0x20 PUSH1 0x4 DUP3 ADD MSTORE PUSH1 0x34 PUSH1 0x24 DUP3 ADD MSTORE PUSH32 0x455243313135353A207472616E7366657220746F206E6F6E2045524331313535 PUSH1 0x44 DUP3 ADD MSTORE PUSH32 0x526563656976657220696D706C656D656E746572000000000000000000000000 PUSH1 0x64 DUP3 ADD MSTORE PUSH1 0x84 ADD PUSH3 0x4B1 JUMP JUMPDEST PUSH1 0x1 PUSH1 0x1 PUSH1 0xE0 SHL SUB NOT DUP2 AND PUSH4 0xBC197C81 PUSH1 0xE0 SHL EQ PUSH3 0x81E JUMPI PUSH1 0x40 MLOAD PUSH3 0x461BCD PUSH1 0xE5 SHL DUP2 MSTORE PUSH1 0x20 PUSH1 0x4 DUP3 ADD MSTORE PUSH1 0x28 PUSH1 0x24 DUP3 ADD MSTORE PUSH32 0x455243313135353A204552433131353552656365697665722072656A65637465 PUSH1 0x44 DUP3 ADD MSTORE PUSH8 0x6420746F6B656E73 PUSH1 0xC0 SHL PUSH1 0x64 DUP3 ADD MSTORE PUSH1 0x84 ADD PUSH3 0x4B1 JUMP JUMPDEST POP POP POP POP POP POP POP JUMP JUMPDEST EXTCODESIZE ISZERO ISZERO SWAP1 JUMP JUMPDEST DUP3 DUP1 SLOAD PUSH3 0x83B SWAP1 PUSH3 0xC78 JUMP JUMPDEST SWAP1 PUSH1 0x0 MSTORE PUSH1 0x20 PUSH1 0x0 KECCAK256 SWAP1 PUSH1 0x1F ADD PUSH1 0x20 SWAP1 DIV DUP2 ADD SWAP3 DUP3 PUSH3 0x85F JUMPI PUSH1 0x0 DUP6 SSTORE PUSH3 0x8AA JUMP JUMPDEST DUP3 PUSH1 0x1F LT PUSH3 0x87A JUMPI DUP1 MLOAD PUSH1 0xFF NOT AND DUP4 DUP1 ADD OR DUP6 SSTORE PUSH3 0x8AA JUMP JUMPDEST DUP3 DUP1 ADD PUSH1 0x1 ADD DUP6 SSTORE DUP3 ISZERO PUSH3 0x8AA JUMPI SWAP2 DUP3 ADD JUMPDEST DUP3 DUP2 GT ISZERO PUSH3 0x8AA JUMPI DUP3 MLOAD DUP3 SSTORE SWAP2 PUSH1 0x20 ADD SWAP2 SWAP1 PUSH1 0x1 ADD SWAP1 PUSH3 0x88D JUMP JUMPDEST POP PUSH3 0x8B8 SWAP3 SWAP2 POP PUSH3 0x8BC JUMP JUMPDEST POP SWAP1 JUMP JUMPDEST JUMPDEST DUP1 DUP3 GT ISZERO PUSH3 0x8B8 JUMPI PUSH1 0x0 DUP2 SSTORE PUSH1 0x1 ADD PUSH3 0x8BD JUMP JUMPDEST DUP1 MLOAD PUSH1 0x1 PUSH1 0x1 PUSH1 0xA0 SHL SUB DUP2 AND DUP2 EQ PUSH3 0x8EB JUMPI PUSH1 0x0 DUP1 REVERT JUMPDEST SWAP2 SWAP1 POP JUMP JUMPDEST PUSH1 0x0 PUSH1 0x20 DUP3 DUP5 SUB SLT ISZERO PUSH3 0x903 JUMPI PUSH1 0x0 DUP1 REVERT JUMPDEST DUP2 MLOAD PUSH1 0x1 PUSH1 0x1 PUSH1 0xE0 SHL SUB NOT DUP2 AND DUP2 EQ PUSH3 0x91C JUMPI PUSH1 0x0 DUP1 REVERT JUMPDEST SWAP4 SWAP3 POP POP POP JUMP JUMPDEST PUSH1 0x0 DUP1 PUSH1 0x0 PUSH1 0x60 DUP5 DUP7 SUB SLT ISZERO PUSH3 0x939 JUMPI PUSH1 0x0 DUP1 REVERT JUMPDEST DUP4 MLOAD PUSH1 0x1 PUSH1 0x1 PUSH1 0x40 SHL SUB DUP1 DUP3 GT ISZERO PUSH3 0x951 JUMPI PUSH1 0x0 DUP1 REVERT JUMPDEST DUP2 DUP7 ADD SWAP2 POP DUP7 PUSH1 0x1F DUP4 ADD SLT PUSH3 0x966 JUMPI PUSH1 0x0 DUP1 REVERT JUMPDEST DUP2 MLOAD DUP2 DUP2 GT ISZERO PUSH3 0x97B JUMPI PUSH3 0x97B PUSH3 0xD2E JUMP JUMPDEST PUSH1 0x40 MLOAD SWAP2 POP PUSH3 0x996 PUSH1 0x1F DUP3 ADD PUSH1 0x1F NOT AND PUSH1 0x20 ADD DUP4 PUSH3 0xCB5 JUMP JUMPDEST DUP1 DUP3 MSTORE DUP8 PUSH1 0x20 DUP3 DUP6 ADD ADD GT ISZERO PUSH3 0x9AC JUMPI PUSH1 0x0 DUP1 REVERT JUMPDEST PUSH3 0x9BF DUP2 PUSH1 0x20 DUP5 ADD PUSH1 0x20 DUP7 ADD PUSH3 0xC45 JUMP JUMPDEST POP SWAP4 POP PUSH3 0x9D2 SWAP1 POP PUSH1 0x20 DUP6 ADD PUSH3 0x8D3 JUMP JUMPDEST SWAP2 POP PUSH3 0x9E2 PUSH1 0x40 DUP6 ADD PUSH3 0x8D3 JUMP JUMPDEST SWAP1 POP SWAP3 POP SWAP3 POP SWAP3 JUMP JUMPDEST PUSH1 0x0 DUP2 MLOAD DUP1 DUP5 MSTORE PUSH1 0x20 DUP1 DUP6 ADD SWAP5 POP DUP1 DUP5 ADD PUSH1 0x0 JUMPDEST DUP4 DUP2 LT ISZERO PUSH3 0xA1D JUMPI DUP2 MLOAD DUP8 MSTORE SWAP6 DUP3 ADD SWAP6 SWAP1 DUP3 ADD SWAP1 PUSH1 0x1 ADD PUSH3 0x9FF JUMP JUMPDEST POP SWAP5 SWAP6 SWAP5 POP POP POP POP POP JUMP JUMPDEST PUSH1 0x0 DUP2 MLOAD DUP1 DUP5 MSTORE PUSH3 0xA42 DUP2 PUSH1 0x20 DUP7 ADD PUSH1 0x20 DUP7 ADD PUSH3 0xC45 JUMP JUMPDEST PUSH1 0x1F ADD PUSH1 0x1F NOT AND SWAP3 SWAP1 SWAP3 ADD PUSH1 0x20 ADD SWAP3 SWAP2 POP POP JUMP JUMPDEST PUSH1 0x1 PUSH1 0x1 PUSH1 0xA0 SHL SUB DUP7 DUP2 AND DUP3 MSTORE DUP6 AND PUSH1 0x20 DUP3 ADD MSTORE PUSH1 0xA0 PUSH1 0x40 DUP3 ADD DUP2 SWAP1 MSTORE PUSH1 0x0 SWAP1 PUSH3 0xA84 SWAP1 DUP4 ADD DUP7 PUSH3 0x9EB JUMP JUMPDEST DUP3 DUP2 SUB PUSH1 0x60 DUP5 ADD MSTORE PUSH3 0xA98 DUP2 DUP7 PUSH3 0x9EB JUMP JUMPDEST SWAP1 POP DUP3 DUP2 SUB PUSH1 0x80 DUP5 ADD MSTORE PUSH3 0xAAE DUP2 DUP6 PUSH3 0xA28 JUMP JUMPDEST SWAP9 SWAP8 POP POP POP POP POP POP POP POP JUMP JUMPDEST PUSH1 0x40 DUP2 MSTORE PUSH1 0x0 PUSH3 0xACF PUSH1 0x40 DUP4 ADD DUP6 PUSH3 0x9EB JUMP JUMPDEST DUP3 DUP2 SUB PUSH1 0x20 DUP5 ADD MSTORE PUSH3 0xAE3 DUP2 DUP6 PUSH3 0x9EB JUMP JUMPDEST SWAP6 SWAP5 POP POP POP POP POP JUMP JUMPDEST PUSH1 0x20 DUP2 MSTORE PUSH1 0x0 PUSH3 0x91C PUSH1 0x20 DUP4 ADD DUP5 PUSH3 0xA28 JUMP JUMPDEST PUSH1 0x0 DUP3 NOT DUP3 GT ISZERO PUSH3 0xB17 JUMPI PUSH3 0xB17 PUSH3 0xD02 JUMP JUMPDEST POP ADD SWAP1 JUMP JUMPDEST PUSH1 0x1 DUP2 DUP2 JUMPDEST DUP1 DUP6 GT ISZERO PUSH3 0xB5D JUMPI DUP2 PUSH1 0x0 NOT DIV DUP3 GT ISZERO PUSH3 0xB41 JUMPI PUSH3 0xB41 PUSH3 0xD02 JUMP JUMPDEST DUP1 DUP6 AND ISZERO PUSH3 0xB4F JUMPI SWAP2 DUP2 MUL SWAP2 JUMPDEST SWAP4 DUP5 SHR SWAP4 SWAP1 DUP1 MUL SWAP1 PUSH3 0xB21 JUMP JUMPDEST POP SWAP3 POP SWAP3 SWAP1 POP JUMP JUMPDEST PUSH1 0x0 PUSH3 0x91C DUP4 DUP4 PUSH1 0x0 DUP3 PUSH3 0xB7E JUMPI POP PUSH1 0x1 PUSH3 0xC1D JUMP JUMPDEST DUP2 PUSH3 0xB8D JUMPI POP PUSH1 0x0 PUSH3 0xC1D JUMP JUMPDEST DUP2 PUSH1 0x1 DUP2 EQ PUSH3 0xBA6 JUMPI PUSH1 0x2 DUP2 EQ PUSH3 0xBB1 JUMPI PUSH3 0xBD1 JUMP JUMPDEST PUSH1 0x1 SWAP2 POP POP PUSH3 0xC1D JUMP JUMPDEST PUSH1 0xFF DUP5 GT ISZERO PUSH3 0xBC5 JUMPI PUSH3 0xBC5 PUSH3 0xD02 JUMP JUMPDEST POP POP PUSH1 0x1 DUP3 SHL PUSH3 0xC1D JUMP JUMPDEST POP PUSH1 0x20 DUP4 LT PUSH2 0x133 DUP4 LT AND PUSH1 0x4E DUP5 LT PUSH1 0xB DUP5 LT AND OR ISZERO PUSH3 0xBF6 JUMPI POP DUP2 DUP2 EXP PUSH3 0xC1D JUMP JUMPDEST PUSH3 0xC02 DUP4 DUP4 PUSH3 0xB1C JUMP JUMPDEST DUP1 PUSH1 0x0 NOT DIV DUP3 GT ISZERO PUSH3 0xC19 JUMPI PUSH3 0xC19 PUSH3 0xD02 JUMP JUMPDEST MUL SWAP1 POP JUMPDEST SWAP3 SWAP2 POP POP JUMP JUMPDEST PUSH1 0x0 DUP2 PUSH1 0x0 NOT DIV DUP4 GT DUP3 ISZERO ISZERO AND ISZERO PUSH3 0xC40 JUMPI PUSH3 0xC40 PUSH3 0xD02 JUMP JUMPDEST POP MUL SWAP1 JUMP JUMPDEST PUSH1 0x0 JUMPDEST DUP4 DUP2 LT ISZERO PUSH3 0xC62 JUMPI DUP2 DUP2 ADD MLOAD DUP4 DUP3 ADD MSTORE PUSH1 0x20 ADD PUSH3 0xC48 JUMP JUMPDEST DUP4 DUP2 GT ISZERO PUSH3 0xC72 JUMPI PUSH1 0x0 DUP5 DUP5 ADD MSTORE JUMPDEST POP POP POP POP JUMP JUMPDEST PUSH1 0x1 DUP2 DUP2 SHR SWAP1 DUP3 AND DUP1 PUSH3 0xC8D JUMPI PUSH1 0x7F DUP3 AND SWAP2 POP JUMPDEST PUSH1 0x20 DUP3 LT DUP2 EQ ISZERO PUSH3 0xCAF JUMPI PUSH4 0x4E487B71 PUSH1 0xE0 SHL PUSH1 0x0 MSTORE PUSH1 0x22 PUSH1 0x4 MSTORE PUSH1 0x24 PUSH1 0x0 REVERT JUMPDEST POP SWAP2 SWAP1 POP JUMP JUMPDEST PUSH1 0x1F DUP3 ADD PUSH1 0x1F NOT AND DUP2 ADD PUSH1 0x1 PUSH1 0x1 PUSH1 0x40 SHL SUB DUP2 GT DUP3 DUP3 LT OR ISZERO PUSH3 0xCDD JUMPI PUSH3 0xCDD PUSH3 0xD2E JUMP JUMPDEST PUSH1 0x40 MSTORE POP POP JUMP JUMPDEST PUSH1 0x0 PUSH1 0x0 NOT DUP3 EQ ISZERO PUSH3 0xCFB JUMPI PUSH3 0xCFB PUSH3 0xD02 JUMP JUMPDEST POP PUSH1 0x1 ADD SWAP1 JUMP JUMPDEST PUSH4 0x4E487B71 PUSH1 0xE0 SHL PUSH1 0x0 MSTORE PUSH1 0x11 PUSH1 0x4 MSTORE PUSH1 0x24 PUSH1 0x0 REVERT JUMPDEST PUSH4 0x4E487B71 PUSH1 0xE0 SHL PUSH1 0x0 MSTORE PUSH1 0x32 PUSH1 0x4 MSTORE PUSH1 0x24 PUSH1 0x0 REVERT JUMPDEST PUSH4 0x4E487B71 PUSH1 0xE0 SHL PUSH1 0x0 MSTORE PUSH1 0x41 PUSH1 0x4 MSTORE PUSH1 0x24 PUSH1 0x0 REVERT JUMPDEST PUSH1 0x0 PUSH1 0x3 RETURNDATASIZE GT ISZERO PUSH3 0xD5E JUMPI PUSH1 0x4 PUSH1 0x0 DUP1 RETURNDATACOPY POP PUSH1 0x0 MLOAD PUSH1 0xE0 SHR JUMPDEST SWAP1 JUMP JUMPDEST PUSH1 0x0 PUSH1 0x44 RETURNDATASIZE LT ISZERO PUSH3 0xD70 JUMPI SWAP1 JUMP JUMPDEST PUSH1 0x40 MLOAD PUSH1 0x3 NOT RETURNDATASIZE DUP2 ADD PUSH1 0x4 DUP4 RETURNDATACOPY DUP2 MLOAD RETURNDATASIZE PUSH1 0x1 PUSH1 0x1 PUSH1 0x40 SHL SUB DUP1 DUP4 GT PUSH1 0x24 DUP5 ADD DUP4 LT OR ISZERO PUSH3 0xDA0 JUMPI POP POP POP POP POP SWAP1 JUMP JUMPDEST DUP3 DUP6 ADD SWAP2 POP DUP2 MLOAD DUP2 DUP2 GT ISZERO PUSH3 0xDB9 JUMPI POP POP POP POP POP POP SWAP1 JUMP JUMPDEST DUP5 RETURNDATASIZE DUP8 ADD ADD PUSH1 0x20 DUP3 DUP6 ADD ADD GT ISZERO PUSH3 0xDD4 JUMPI POP POP POP POP POP POP SWAP1 JUMP JUMPDEST PUSH3 0xDE5 PUSH1 0x20 DUP3 DUP7 ADD ADD DUP8 PUSH3 0xCB5 JUMP JUMPDEST POP SWAP1 SWAP6 SWAP5 POP POP POP POP POP JUMP JUMPDEST PUSH2 0x1E53 DUP1 PUSH3 0xE00 PUSH1 0x0 CODECOPY PUSH1 0x0 RETURN INVALID PUSH1 0x80 PUSH1 0x40 MSTORE CALLVALUE DUP1 ISZERO PUSH2 0x10 JUMPI PUSH1 0x0 DUP1 REVERT JUMPDEST POP PUSH1 0x4 CALLDATASIZE LT PUSH2 0x1A8 JUMPI PUSH1 0x0 CALLDATALOAD PUSH1 0xE0 SHR DUP1 PUSH4 0x6CED64E0 GT PUSH2 0xF9 JUMPI DUP1 PUSH4 0xC434439F GT PUSH2 0x97 JUMPI DUP1 PUSH4 0xF1DBDA5E GT PUSH2 0x71 JUMPI DUP1 PUSH4 0xF1DBDA5E EQ PUSH2 0x3B1 JUMPI DUP1 PUSH4 0xF242432A EQ PUSH2 0x3BA JUMPI DUP1 PUSH4 0xFCD81503 EQ PUSH2 0x3CD JUMPI DUP1 PUSH4 0xFE8C6D33 EQ PUSH2 0x3E0 JUMPI PUSH1 0x0 DUP1 REVERT JUMPDEST DUP1 PUSH4 0xC434439F EQ PUSH2 0x359 JUMPI DUP1 PUSH4 0xD8FC6519 EQ PUSH2 0x362 JUMPI DUP1 PUSH4 0xE985E9C5 EQ PUSH2 0x375 JUMPI PUSH1 0x0 DUP1 REVERT JUMPDEST DUP1 PUSH4 0x8DA5CB5B GT PUSH2 0xD3 JUMPI DUP1 PUSH4 0x8DA5CB5B EQ PUSH2 0x321 JUMPI DUP1 PUSH4 0xA22CB465 EQ PUSH2 0x334 JUMPI DUP1 PUSH4 0xA36DC507 EQ PUSH2 0x347 JUMPI DUP1 PUSH4 0xB47F0BD4 EQ PUSH2 0x350 JUMPI PUSH1 0x0 DUP1 REVERT JUMPDEST DUP1 PUSH4 0x6CED64E0 EQ PUSH2 0x307 JUMPI DUP1 PUSH4 0x713A88D6 EQ PUSH2 0x30F JUMPI DUP1 PUSH4 0x82B4681D EQ PUSH2 0x318 JUMPI PUSH1 0x0 DUP1 REVERT JUMPDEST DUP1 PUSH4 0x3B8ABCBA GT PUSH2 0x166 JUMPI DUP1 PUSH4 0x4E1273F4 GT PUSH2 0x140 JUMPI DUP1 PUSH4 0x4E1273F4 EQ PUSH2 0x2C2 JUMPI DUP1 PUSH4 0x5ABEA7DC EQ PUSH2 0x2E2 JUMPI DUP1 PUSH4 0x5CA5A3F4 EQ PUSH2 0x2F5 JUMPI DUP1 PUSH4 0x5FFDB139 EQ PUSH2 0x2FE JUMPI PUSH1 0x0 DUP1 REVERT JUMPDEST DUP1 PUSH4 0x3B8ABCBA EQ PUSH2 0x23D JUMPI DUP1 PUSH4 0x4312D189 EQ PUSH2 0x28E JUMPI DUP1 PUSH4 0x4D709ADF EQ PUSH2 0x297 JUMPI PUSH1 0x0 DUP1 REVERT JUMPDEST DUP1 PUSH3 0xFDD58E EQ PUSH2 0x1AD JUMPI DUP1 PUSH4 0x1E1200E EQ PUSH2 0x1D3 JUMPI DUP1 PUSH4 0x1FFC9A7 EQ PUSH2 0x1DC JUMPI DUP1 PUSH4 0xE89341C EQ PUSH2 0x1FF JUMPI DUP1 PUSH4 0x1CA2BD88 EQ PUSH2 0x21F JUMPI DUP1 PUSH4 0x2EB2C2D6 EQ PUSH2 0x228 JUMPI JUMPDEST PUSH1 0x0 DUP1 REVERT JUMPDEST PUSH2 0x1C0 PUSH2 0x1BB CALLDATASIZE PUSH1 0x4 PUSH2 0x1827 JUMP JUMPDEST PUSH2 0x3E9 JUMP JUMPDEST PUSH1 0x40 MLOAD SWAP1 DUP2 MSTORE PUSH1 0x20 ADD JUMPDEST PUSH1 0x40 MLOAD DUP1 SWAP2 SUB SWAP1 RETURN JUMPDEST PUSH2 0x1C0 PUSH1 0xB SLOAD DUP2 JUMP JUMPDEST PUSH2 0x1EF PUSH2 0x1EA CALLDATASIZE PUSH1 0x4 PUSH2 0x193F JUMP JUMPDEST PUSH2 0x483 JUMP JUMPDEST PUSH1 0x40 MLOAD SWAP1 ISZERO ISZERO DUP2 MSTORE PUSH1 0x20 ADD PUSH2 0x1CA JUMP JUMPDEST PUSH2 0x212 PUSH2 0x20D CALLDATASIZE PUSH1 0x4 PUSH2 0x1979 JUMP JUMPDEST PUSH2 0x4D3 JUMP JUMPDEST PUSH1 0x40 MLOAD PUSH2 0x1CA SWAP2 SWAP1 PUSH2 0x1B4E JUMP JUMPDEST PUSH2 0x1C0 PUSH1 0xA SLOAD DUP2 JUMP JUMPDEST PUSH2 0x23B PUSH2 0x236 CALLDATASIZE PUSH1 0x4 PUSH2 0x16E1 JUMP JUMPDEST PUSH2 0x567 JUMP JUMPDEST STOP JUMPDEST PUSH2 0x271 PUSH2 0x24B CALLDATASIZE PUSH1 0x4 PUSH2 0x168C JUMP JUMPDEST PUSH1 0x2 PUSH1 0x20 DUP2 SWAP1 MSTORE PUSH1 0x0 SWAP2 DUP3 MSTORE PUSH1 0x40 SWAP1 SWAP2 KECCAK256 DUP1 SLOAD PUSH1 0x1 DUP3 ADD SLOAD SWAP2 SWAP1 SWAP3 ADD SLOAD PUSH1 0xFF SWAP1 SWAP3 AND SWAP2 DUP4 JUMP JUMPDEST PUSH1 0x40 DUP1 MLOAD SWAP4 ISZERO ISZERO DUP5 MSTORE PUSH1 0x20 DUP5 ADD SWAP3 SWAP1 SWAP3 MSTORE SWAP1 DUP3 ADD MSTORE PUSH1 0x60 ADD PUSH2 0x1CA JUMP JUMPDEST PUSH2 0x1C0 PUSH1 0x9 SLOAD DUP2 JUMP JUMPDEST PUSH1 0x6 SLOAD PUSH2 0x2AA SWAP1 PUSH1 0x1 PUSH1 0x1 PUSH1 0xA0 SHL SUB AND DUP2 JUMP JUMPDEST PUSH1 0x40 MLOAD PUSH1 0x1 PUSH1 0x1 PUSH1 0xA0 SHL SUB SWAP1 SWAP2 AND DUP2 MSTORE PUSH1 0x20 ADD PUSH2 0x1CA JUMP JUMPDEST PUSH2 0x2D5 PUSH2 0x2D0 CALLDATASIZE PUSH1 0x4 PUSH2 0x1851 JUMP JUMPDEST PUSH2 0x5FE JUMP JUMPDEST PUSH1 0x40 MLOAD PUSH2 0x1CA SWAP2 SWAP1 PUSH2 0x1B0D JUMP JUMPDEST PUSH1 0x5 SLOAD PUSH2 0x2AA SWAP1 PUSH1 0x1 PUSH1 0x1 PUSH1 0xA0 SHL SUB AND DUP2 JUMP JUMPDEST PUSH2 0x1C0 PUSH1 0xD SLOAD DUP2 JUMP JUMPDEST PUSH2 0x1C0 PUSH1 0x14 SLOAD DUP2 JUMP JUMPDEST PUSH2 0x1EF PUSH2 0x728 JUMP JUMPDEST PUSH2 0x1C0 PUSH1 0x10 SLOAD DUP2 JUMP JUMPDEST PUSH2 0x1C0 PUSH1 0x12 SLOAD DUP2 JUMP JUMPDEST PUSH1 0x4 SLOAD PUSH2 0x2AA SWAP1 PUSH1 0x1 PUSH1 0x1 PUSH1 0xA0 SHL SUB AND DUP2 JUMP JUMPDEST PUSH2 0x23B PUSH2 0x342 CALLDATASIZE PUSH1 0x4 PUSH2 0x17F0 JUMP JUMPDEST PUSH2 0x8D0 JUMP JUMPDEST PUSH2 0x1C0 PUSH1 0xF SLOAD DUP2 JUMP JUMPDEST PUSH2 0x1C0 PUSH1 0x13 SLOAD DUP2 JUMP JUMPDEST PUSH2 0x1C0 PUSH1 0xE SLOAD DUP2 JUMP JUMPDEST PUSH2 0x1EF PUSH2 0x370 CALLDATASIZE PUSH1 0x4 PUSH2 0x1827 JUMP JUMPDEST PUSH2 0x9A7 JUMP JUMPDEST PUSH2 0x1EF PUSH2 0x383 CALLDATASIZE PUSH1 0x4 PUSH2 0x16AE JUMP JUMPDEST PUSH1 0x1 PUSH1 0x1 PUSH1 0xA0 SHL SUB SWAP2 DUP3 AND PUSH1 0x0 SWAP1 DUP2 MSTORE PUSH1 0x1 PUSH1 0x20 SWAP1 DUP2 MSTORE PUSH1 0x40 DUP1 DUP4 KECCAK256 SWAP4 SWAP1 SWAP5 AND DUP3 MSTORE SWAP2 SWAP1 SWAP2 MSTORE KECCAK256 SLOAD PUSH1 0xFF AND SWAP1 JUMP JUMPDEST PUSH2 0x1C0 PUSH1 0x11 SLOAD DUP2 JUMP JUMPDEST PUSH2 0x23B PUSH2 0x3C8 CALLDATASIZE PUSH1 0x4 PUSH2 0x178B JUMP JUMPDEST PUSH2 0xDDC JUMP JUMPDEST PUSH2 0x1EF PUSH2 0x3DB CALLDATASIZE PUSH1 0x4 PUSH2 0x1992 JUMP JUMPDEST PUSH2 0xE63 JUMP JUMPDEST PUSH2 0x1C0 PUSH1 0xC SLOAD DUP2 JUMP JUMPDEST PUSH1 0x0 PUSH1 0x1 PUSH1 0x1 PUSH1 0xA0 SHL SUB DUP4 AND PUSH2 0x45A JUMPI PUSH1 0x40 MLOAD PUSH3 0x461BCD PUSH1 0xE5 SHL DUP2 MSTORE PUSH1 0x20 PUSH1 0x4 DUP3 ADD MSTORE PUSH1 0x2B PUSH1 0x24 DUP3 ADD MSTORE PUSH32 0x455243313135353A2062616C616E636520717565727920666F7220746865207A PUSH1 0x44 DUP3 ADD MSTORE PUSH11 0x65726F2061646472657373 PUSH1 0xA8 SHL PUSH1 0x64 DUP3 ADD MSTORE PUSH1 0x84 ADD JUMPDEST PUSH1 0x40 MLOAD DUP1 SWAP2 SUB SWAP1 REVERT JUMPDEST POP PUSH1 0x0 DUP2 DUP2 MSTORE PUSH1 0x20 DUP2 DUP2 MSTORE PUSH1 0x40 DUP1 DUP4 KECCAK256 PUSH1 0x1 PUSH1 0x1 PUSH1 0xA0 SHL SUB DUP7 AND DUP5 MSTORE SWAP1 SWAP2 MSTORE SWAP1 KECCAK256 SLOAD JUMPDEST SWAP3 SWAP2 POP POP JUMP JUMPDEST PUSH1 0x0 PUSH1 0x1 PUSH1 0x1 PUSH1 0xE0 SHL SUB NOT DUP3 AND PUSH4 0x245FDBB7 PUSH1 0xE2 SHL EQ DUP1 PUSH2 0x4B4 JUMPI POP PUSH1 0x1 PUSH1 0x1 PUSH1 0xE0 SHL SUB NOT DUP3 AND PUSH4 0x3A24D07 PUSH1 0xE2 SHL EQ JUMPDEST DUP1 PUSH2 0x47D JUMPI POP PUSH4 0x1FFC9A7 PUSH1 0xE0 SHL PUSH1 0x1 PUSH1 0x1 PUSH1 0xE0 SHL SUB NOT DUP4 AND EQ PUSH2 0x47D JUMP JUMPDEST PUSH1 0x60 PUSH1 0x3 DUP1 SLOAD PUSH2 0x4E2 SWAP1 PUSH2 0x1C8B JUMP JUMPDEST DUP1 PUSH1 0x1F ADD PUSH1 0x20 DUP1 SWAP2 DIV MUL PUSH1 0x20 ADD PUSH1 0x40 MLOAD SWAP1 DUP2 ADD PUSH1 0x40 MSTORE DUP1 SWAP3 SWAP2 SWAP1 DUP2 DUP2 MSTORE PUSH1 0x20 ADD DUP3 DUP1 SLOAD PUSH2 0x50E SWAP1 PUSH2 0x1C8B JUMP JUMPDEST DUP1 ISZERO PUSH2 0x55B JUMPI DUP1 PUSH1 0x1F LT PUSH2 0x530 JUMPI PUSH2 0x100 DUP1 DUP4 SLOAD DIV MUL DUP4 MSTORE SWAP2 PUSH1 0x20 ADD SWAP2 PUSH2 0x55B JUMP JUMPDEST DUP3 ADD SWAP2 SWAP1 PUSH1 0x0 MSTORE PUSH1 0x20 PUSH1 0x0 KECCAK256 SWAP1 JUMPDEST DUP2 SLOAD DUP2 MSTORE SWAP1 PUSH1 0x1 ADD SWAP1 PUSH1 0x20 ADD DUP1 DUP4 GT PUSH2 0x53E JUMPI DUP3 SWAP1 SUB PUSH1 0x1F AND DUP3 ADD SWAP2 JUMPDEST POP POP POP POP POP SWAP1 POP SWAP2 SWAP1 POP JUMP JUMPDEST PUSH1 0x1 PUSH1 0x1 PUSH1 0xA0 SHL SUB DUP6 AND CALLER EQ DUP1 PUSH2 0x583 JUMPI POP PUSH2 0x583 DUP6 CALLER PUSH2 0x383 JUMP JUMPDEST PUSH2 0x5EA JUMPI PUSH1 0x40 MLOAD PUSH3 0x461BCD PUSH1 0xE5 SHL DUP2 MSTORE PUSH1 0x20 PUSH1 0x4 DUP3 ADD MSTORE PUSH1 0x32 PUSH1 0x24 DUP3 ADD MSTORE PUSH32 0x455243313135353A207472616E736665722063616C6C6572206973206E6F7420 PUSH1 0x44 DUP3 ADD MSTORE PUSH18 0x1BDDDB995C881B9BDC88185C1C1C9BDD9959 PUSH1 0x72 SHL PUSH1 0x64 DUP3 ADD MSTORE PUSH1 0x84 ADD PUSH2 0x451 JUMP JUMPDEST PUSH2 0x5F7 DUP6 DUP6 DUP6 DUP6 DUP6 PUSH2 0xEE0 JUMP JUMPDEST POP POP POP POP POP JUMP JUMPDEST PUSH1 0x60 DUP2 MLOAD DUP4 MLOAD EQ PUSH2 0x663 JUMPI PUSH1 0x40 MLOAD PUSH3 0x461BCD PUSH1 0xE5 SHL DUP2 MSTORE PUSH1 0x20 PUSH1 0x4 DUP3 ADD MSTORE PUSH1 0x29 PUSH1 0x24 DUP3 ADD MSTORE PUSH32 0x455243313135353A206163636F756E747320616E6420696473206C656E677468 PUSH1 0x44 DUP3 ADD MSTORE PUSH9 0x40DAD2E6DAC2E8C6D PUSH1 0xBB SHL PUSH1 0x64 DUP3 ADD MSTORE PUSH1 0x84 ADD PUSH2 0x451 JUMP JUMPDEST PUSH1 0x0 DUP4 MLOAD PUSH8 0xFFFFFFFFFFFFFFFF DUP2 GT ISZERO PUSH2 0x67F JUMPI PUSH2 0x67F PUSH2 0x1D3A JUMP JUMPDEST PUSH1 0x40 MLOAD SWAP1 DUP1 DUP3 MSTORE DUP1 PUSH1 0x20 MUL PUSH1 0x20 ADD DUP3 ADD PUSH1 0x40 MSTORE DUP1 ISZERO PUSH2 0x6A8 JUMPI DUP2 PUSH1 0x20 ADD PUSH1 0x20 DUP3 MUL DUP1 CALLDATASIZE DUP4 CALLDATACOPY ADD SWAP1 POP JUMPDEST POP SWAP1 POP PUSH1 0x0 JUMPDEST DUP5 MLOAD DUP2 LT ISZERO PUSH2 0x720 JUMPI PUSH2 0x6F3 DUP6 DUP3 DUP2 MLOAD DUP2 LT PUSH2 0x6CC JUMPI PUSH2 0x6CC PUSH2 0x1D24 JUMP JUMPDEST PUSH1 0x20 MUL PUSH1 0x20 ADD ADD MLOAD DUP6 DUP4 DUP2 MLOAD DUP2 LT PUSH2 0x6E6 JUMPI PUSH2 0x6E6 PUSH2 0x1D24 JUMP JUMPDEST PUSH1 0x20 MUL PUSH1 0x20 ADD ADD MLOAD PUSH2 0x3E9 JUMP JUMPDEST DUP3 DUP3 DUP2 MLOAD DUP2 LT PUSH2 0x705 JUMPI PUSH2 0x705 PUSH2 0x1D24 JUMP JUMPDEST PUSH1 0x20 SWAP1 DUP2 MUL SWAP2 SWAP1 SWAP2 ADD ADD MSTORE PUSH2 0x719 DUP2 PUSH2 0x1CF3 JUMP JUMPDEST SWAP1 POP PUSH2 0x6AE JUMP JUMPDEST POP SWAP4 SWAP3 POP POP POP JUMP JUMPDEST CALLER PUSH1 0x0 SWAP1 DUP2 MSTORE PUSH1 0x2 PUSH1 0x20 DUP2 SWAP1 MSTORE PUSH1 0x40 DUP3 KECCAK256 ADD SLOAD PUSH1 0x7 SLOAD PUSH2 0x748 SWAP1 NUMBER PUSH2 0x1C74 JUMP JUMPDEST GT PUSH2 0x789 JUMPI PUSH1 0x40 MLOAD PUSH3 0x461BCD PUSH1 0xE5 SHL DUP2 MSTORE PUSH1 0x20 PUSH1 0x4 DUP3 ADD MSTORE PUSH1 0x11 PUSH1 0x24 DUP3 ADD MSTORE PUSH17 0x7761697420666F7220676170426C6F636B PUSH1 0x78 SHL PUSH1 0x44 DUP3 ADD MSTORE PUSH1 0x64 ADD PUSH2 0x451 JUMP JUMPDEST CALLER PUSH1 0x0 SWAP1 DUP2 MSTORE PUSH1 0x2 PUSH1 0x20 MSTORE PUSH1 0x40 SWAP1 KECCAK256 SLOAD PUSH1 0xFF AND PUSH2 0x7DD JUMPI PUSH1 0x40 MLOAD PUSH3 0x461BCD PUSH1 0xE5 SHL DUP2 MSTORE PUSH1 0x20 PUSH1 0x4 DUP3 ADD MSTORE PUSH1 0x12 PUSH1 0x24 DUP3 ADD MSTORE PUSH18 0x6973506C65646765206E6565642074727565 PUSH1 0x70 SHL PUSH1 0x44 DUP3 ADD MSTORE PUSH1 0x64 ADD PUSH2 0x451 JUMP JUMPDEST CALLER PUSH1 0x0 DUP2 DUP2 MSTORE PUSH1 0x2 PUSH1 0x20 MSTORE PUSH1 0x40 DUP1 DUP3 KECCAK256 PUSH1 0x1 ADD DUP1 SLOAD SWAP3 SWAP1 SSTORE PUSH1 0x6 SLOAD SWAP1 MLOAD PUSH4 0xA9059CBB PUSH1 0xE0 SHL DUP2 MSTORE PUSH1 0x4 DUP2 ADD SWAP4 SWAP1 SWAP4 MSTORE PUSH1 0x24 DUP4 ADD DUP3 SWAP1 MSTORE SWAP1 SWAP2 PUSH1 0x1 PUSH1 0x1 PUSH1 0xA0 SHL SUB SWAP1 SWAP2 AND SWAP1 PUSH4 0xA9059CBB SWAP1 PUSH1 0x44 ADD PUSH1 0x20 PUSH1 0x40 MLOAD DUP1 DUP4 SUB DUP2 PUSH1 0x0 DUP8 DUP1 EXTCODESIZE ISZERO DUP1 ISZERO PUSH2 0x844 JUMPI PUSH1 0x0 DUP1 REVERT JUMPDEST POP GAS CALL ISZERO DUP1 ISZERO PUSH2 0x858 JUMPI RETURNDATASIZE PUSH1 0x0 DUP1 RETURNDATACOPY RETURNDATASIZE PUSH1 0x0 REVERT JUMPDEST POP POP POP POP PUSH1 0x40 MLOAD RETURNDATASIZE PUSH1 0x1F NOT PUSH1 0x1F DUP3 ADD AND DUP3 ADD DUP1 PUSH1 0x40 MSTORE POP DUP2 ADD SWAP1 PUSH2 0x87C SWAP2 SWAP1 PUSH2 0x1922 JUMP JUMPDEST PUSH2 0x8C8 JUMPI PUSH1 0x40 MLOAD PUSH3 0x461BCD PUSH1 0xE5 SHL DUP2 MSTORE PUSH1 0x20 PUSH1 0x4 DUP3 ADD MSTORE PUSH1 0x1F PUSH1 0x24 DUP3 ADD MSTORE PUSH32 0x77697468647261774E6674207472616E7366657246726F6D206661696C656400 PUSH1 0x44 DUP3 ADD MSTORE PUSH1 0x64 ADD PUSH2 0x451 JUMP JUMPDEST PUSH1 0x1 SWAP2 POP POP SWAP1 JUMP JUMPDEST CALLER PUSH1 0x1 PUSH1 0x1 PUSH1 0xA0 SHL SUB DUP4 AND EQ ISZERO PUSH2 0x93B JUMPI PUSH1 0x40 MLOAD PUSH3 0x461BCD PUSH1 0xE5 SHL DUP2 MSTORE PUSH1 0x20 PUSH1 0x4 DUP3 ADD MSTORE PUSH1 0x29 PUSH1 0x24 DUP3 ADD MSTORE PUSH32 0x455243313135353A2073657474696E6720617070726F76616C20737461747573 PUSH1 0x44 DUP3 ADD MSTORE PUSH9 0x103337B91039B2B633 PUSH1 0xB9 SHL PUSH1 0x64 DUP3 ADD MSTORE PUSH1 0x84 ADD PUSH2 0x451 JUMP JUMPDEST CALLER PUSH1 0x0 DUP2 DUP2 MSTORE PUSH1 0x1 PUSH1 0x20 SWAP1 DUP2 MSTORE PUSH1 0x40 DUP1 DUP4 KECCAK256 PUSH1 0x1 PUSH1 0x1 PUSH1 0xA0 SHL SUB DUP8 AND DUP1 DUP6 MSTORE SWAP1 DUP4 MSTORE SWAP3 DUP2 SWAP1 KECCAK256 DUP1 SLOAD PUSH1 0xFF NOT AND DUP7 ISZERO ISZERO SWAP1 DUP2 OR SWAP1 SWAP2 SSTORE SWAP1 MLOAD SWAP1 DUP2 MSTORE SWAP2 SWAP3 SWAP2 PUSH32 0x17307EAB39AB6107E8899845AD3D59BD9653F200F220920489CA2B5937696C31 SWAP2 ADD PUSH1 0x40 MLOAD DUP1 SWAP2 SUB SWAP1 LOG3 POP POP JUMP JUMPDEST PUSH1 0x4 SLOAD PUSH1 0x0 SWAP1 PUSH1 0x1 PUSH1 0x1 PUSH1 0xA0 SHL SUB AND CALLER EQ DUP1 ISZERO PUSH2 0x9C3 JUMPI POP DUP2 ISZERO ISZERO JUMPDEST ISZERO PUSH2 0x9DA JUMPI PUSH2 0x9D2 DUP4 DUP4 PUSH2 0x10BD JUMP JUMPDEST POP PUSH1 0x1 PUSH2 0x47D JUMP JUMPDEST PUSH1 0x5 SLOAD PUSH1 0x40 MLOAD PUSH4 0x6386C1C7 PUSH1 0xE0 SHL DUP2 MSTORE CALLER PUSH1 0x4 DUP3 ADD MSTORE PUSH1 0x0 SWAP2 DUP3 SWAP2 DUP3 SWAP2 PUSH1 0x1 PUSH1 0x1 PUSH1 0xA0 SHL SUB AND SWAP1 PUSH4 0x6386C1C7 SWAP1 PUSH1 0x24 ADD PUSH1 0x60 PUSH1 0x40 MLOAD DUP1 DUP4 SUB DUP2 DUP7 DUP1 EXTCODESIZE ISZERO DUP1 ISZERO PUSH2 0xA22 JUMPI PUSH1 0x0 DUP1 REVERT JUMPDEST POP GAS STATICCALL ISZERO DUP1 ISZERO PUSH2 0xA36 JUMPI RETURNDATASIZE PUSH1 0x0 DUP1 RETURNDATACOPY RETURNDATASIZE PUSH1 0x0 REVERT JUMPDEST POP POP POP POP PUSH1 0x40 MLOAD RETURNDATASIZE PUSH1 0x1F NOT PUSH1 0x1F DUP3 ADD AND DUP3 ADD DUP1 PUSH1 0x40 MSTORE POP DUP2 ADD SWAP1 PUSH2 0xA5A SWAP2 SWAP1 PUSH2 0x19B4 JUMP JUMPDEST CALLER PUSH1 0x0 SWAP1 DUP2 MSTORE PUSH1 0x2 PUSH1 0x20 MSTORE PUSH1 0x40 SWAP1 KECCAK256 SLOAD SWAP3 SWAP6 POP SWAP1 SWAP4 POP SWAP2 POP PUSH1 0xFF AND ISZERO PUSH2 0xAB6 JUMPI PUSH1 0x40 MLOAD PUSH3 0x461BCD PUSH1 0xE5 SHL DUP2 MSTORE PUSH1 0x20 PUSH1 0x4 DUP3 ADD MSTORE PUSH1 0x11 PUSH1 0x24 DUP3 ADD MSTORE PUSH17 0x185B1C9958591E4818DBDB1B1958DD1959 PUSH1 0x7A SHL PUSH1 0x44 DUP3 ADD MSTORE PUSH1 0x64 ADD PUSH2 0x451 JUMP JUMPDEST PUSH1 0x9 SLOAD DUP4 LT ISZERO PUSH2 0xB13 JUMPI PUSH1 0x40 MLOAD PUSH3 0x461BCD PUSH1 0xE5 SHL DUP2 MSTORE PUSH1 0x20 PUSH1 0x4 DUP3 ADD MSTORE PUSH1 0x22 PUSH1 0x24 DUP3 ADD MSTORE PUSH32 0x73776170557364416D6F756E74206C657373207468616E20737761704C657665 PUSH1 0x44 DUP3 ADD MSTORE PUSH2 0x6C31 PUSH1 0xF0 SHL PUSH1 0x64 DUP3 ADD MSTORE PUSH1 0x84 ADD PUSH2 0x451 JUMP JUMPDEST PUSH1 0xF SLOAD DUP3 LT ISZERO PUSH2 0xB74 JUMPI PUSH1 0x40 MLOAD PUSH3 0x461BCD PUSH1 0xE5 SHL DUP2 MSTORE PUSH1 0x20 PUSH1 0x4 DUP3 ADD MSTORE PUSH1 0x26 PUSH1 0x24 DUP3 ADD MSTORE PUSH32 0x706C65646765557364416D6F756E74206C657373207468616E20706C65646765 PUSH1 0x44 DUP3 ADD MSTORE PUSH6 0x4C6576656C31 PUSH1 0xD0 SHL PUSH1 0x64 DUP3 ADD MSTORE PUSH1 0x84 ADD PUSH2 0x451 JUMP JUMPDEST PUSH1 0x0 DUP1 PUSH1 0x9 SLOAD DUP6 LT ISZERO DUP1 ISZERO PUSH2 0xB8A JUMPI POP PUSH1 0xA SLOAD DUP6 LT JUMPDEST ISZERO PUSH2 0xB94 JUMPI PUSH1 0x1 SWAP2 POP JUMPDEST PUSH1 0xA SLOAD DUP6 LT ISZERO DUP1 ISZERO PUSH2 0xBA7 JUMPI POP PUSH1 0xB SLOAD DUP6 LT JUMPDEST ISZERO PUSH2 0xBB1 JUMPI PUSH1 0x2 SWAP2 POP JUMPDEST PUSH1 0xB SLOAD DUP6 LT ISZERO DUP1 ISZERO PUSH2 0xBC4 JUMPI POP PUSH1 0xC SLOAD DUP6 LT JUMPDEST ISZERO PUSH2 0xBCE JUMPI PUSH1 0x3 SWAP2 POP JUMPDEST PUSH1 0xC SLOAD DUP6 LT ISZERO DUP1 ISZERO PUSH2 0xBE1 JUMPI POP PUSH1 0xD SLOAD DUP6 LT JUMPDEST ISZERO PUSH2 0xBEB JUMPI PUSH1 0x4 SWAP2 POP JUMPDEST PUSH1 0xD SLOAD DUP6 LT ISZERO DUP1 ISZERO PUSH2 0xBFE JUMPI POP PUSH1 0xE SLOAD DUP6 LT JUMPDEST ISZERO PUSH2 0xC08 JUMPI PUSH1 0x5 SWAP2 POP JUMPDEST PUSH1 0xE SLOAD DUP6 LT PUSH2 0xC16 JUMPI PUSH1 0x6 SWAP2 POP JUMPDEST PUSH1 0xF SLOAD DUP5 LT ISZERO DUP1 ISZERO PUSH2 0xC29 JUMPI POP PUSH1 0x10 SLOAD DUP5 LT JUMPDEST ISZERO PUSH2 0xC32 JUMPI POP PUSH1 0x1 JUMPDEST PUSH1 0x10 SLOAD DUP5 LT ISZERO DUP1 ISZERO PUSH2 0xC45 JUMPI POP PUSH1 0x11 SLOAD DUP5 LT JUMPDEST ISZERO PUSH2 0xC4E JUMPI POP PUSH1 0x2 JUMPDEST PUSH1 0x11 SLOAD DUP5 LT ISZERO DUP1 ISZERO PUSH2 0xC61 JUMPI POP PUSH1 0x12 SLOAD DUP5 LT JUMPDEST ISZERO PUSH2 0xC6A JUMPI POP PUSH1 0x3 JUMPDEST PUSH1 0x12 SLOAD DUP5 LT ISZERO DUP1 ISZERO PUSH2 0xC7D JUMPI POP PUSH1 0x13 SLOAD DUP5 LT JUMPDEST ISZERO PUSH2 0xC86 JUMPI POP PUSH1 0x4 JUMPDEST PUSH1 0x13 SLOAD DUP5 LT ISZERO DUP1 ISZERO PUSH2 0xC99 JUMPI POP PUSH1 0x14 SLOAD DUP5 LT JUMPDEST ISZERO PUSH2 0xCA2 JUMPI POP PUSH1 0x5 JUMPDEST PUSH1 0x14 SLOAD DUP5 LT PUSH2 0xCAF JUMPI POP PUSH1 0x6 JUMPDEST PUSH1 0x0 DUP2 DUP4 GT PUSH2 0xCBE JUMPI DUP3 PUSH2 0xCC0 JUMP JUMPDEST DUP2 JUMPDEST CALLER PUSH1 0x0 DUP2 DUP2 MSTORE PUSH1 0x2 PUSH1 0x20 DUP2 SWAP1 MSTORE PUSH1 0x40 SWAP2 DUP3 SWAP1 KECCAK256 DUP1 SLOAD PUSH1 0xFF NOT AND PUSH1 0x1 SWAP1 DUP2 OR DUP3 SSTORE DUP2 ADD DUP11 SWAP1 SSTORE NUMBER SWAP2 ADD SSTORE PUSH1 0x6 SLOAD SWAP1 MLOAD PUSH4 0x23B872DD PUSH1 0xE0 SHL DUP2 MSTORE PUSH1 0x4 DUP2 ADD SWAP3 SWAP1 SWAP3 MSTORE ADDRESS PUSH1 0x24 DUP4 ADD MSTORE PUSH1 0x44 DUP3 ADD DUP8 SWAP1 MSTORE SWAP2 SWAP3 POP PUSH1 0x1 PUSH1 0x1 PUSH1 0xA0 SHL SUB SWAP1 SWAP2 AND SWAP1 PUSH4 0x23B872DD SWAP1 PUSH1 0x64 ADD PUSH1 0x20 PUSH1 0x40 MLOAD DUP1 DUP4 SUB DUP2 PUSH1 0x0 DUP8 DUP1 EXTCODESIZE ISZERO DUP1 ISZERO PUSH2 0xD3F JUMPI PUSH1 0x0 DUP1 REVERT JUMPDEST POP GAS CALL ISZERO DUP1 ISZERO PUSH2 0xD53 JUMPI RETURNDATASIZE PUSH1 0x0 DUP1 RETURNDATACOPY RETURNDATASIZE PUSH1 0x0 REVERT JUMPDEST POP POP POP POP PUSH1 0x40 MLOAD RETURNDATASIZE PUSH1 0x1F NOT PUSH1 0x1F DUP3 ADD AND DUP3 ADD DUP1 PUSH1 0x40 MSTORE POP DUP2 ADD SWAP1 PUSH2 0xD77 SWAP2 SWAP1 PUSH2 0x1922 JUMP JUMPDEST PUSH2 0xDC3 JUMPI PUSH1 0x40 MLOAD PUSH3 0x461BCD PUSH1 0xE5 SHL DUP2 MSTORE PUSH1 0x20 PUSH1 0x4 DUP3 ADD MSTORE PUSH1 0x1F PUSH1 0x24 DUP3 ADD MSTORE PUSH32 0x77697468647261774E6674207472616E7366657246726F6D206661696C656400 PUSH1 0x44 DUP3 ADD MSTORE PUSH1 0x64 ADD PUSH2 0x451 JUMP JUMPDEST PUSH2 0xDCD DUP10 DUP3 PUSH2 0x10BD JUMP JUMPDEST POP PUSH1 0x1 SWAP9 SWAP8 POP POP POP POP POP POP POP POP JUMP JUMPDEST PUSH1 0x1 PUSH1 0x1 PUSH1 0xA0 SHL SUB DUP6 AND CALLER EQ DUP1 PUSH2 0xDF8 JUMPI POP PUSH2 0xDF8 DUP6 CALLER PUSH2 0x383 JUMP JUMPDEST PUSH2 0xE56 JUMPI PUSH1 0x40 MLOAD PUSH3 0x461BCD PUSH1 0xE5 SHL DUP2 MSTORE PUSH1 0x20 PUSH1 0x4 DUP3 ADD MSTORE PUSH1 0x29 PUSH1 0x24 DUP3 ADD MSTORE PUSH32 0x455243313135353A2063616C6C6572206973206E6F74206F776E6572206E6F72 PUSH1 0x44 DUP3 ADD MSTORE PUSH9 0x8185C1C1C9BDD9959 PUSH1 0xBA SHL PUSH1 0x64 DUP3 ADD MSTORE PUSH1 0x84 ADD PUSH2 0x451 JUMP JUMPDEST PUSH2 0x5F7 DUP6 DUP6 DUP6 DUP6 DUP6 PUSH2 0x10DE JUMP JUMPDEST PUSH1 0x4 SLOAD PUSH1 0x0 SWAP1 PUSH1 0x1 PUSH1 0x1 PUSH1 0xA0 SHL SUB AND CALLER EQ PUSH2 0xEB6 JUMPI PUSH1 0x40 MLOAD PUSH3 0x461BCD PUSH1 0xE5 SHL DUP2 MSTORE PUSH1 0x20 PUSH1 0x4 DUP3 ADD MSTORE PUSH1 0x13 PUSH1 0x24 DUP3 ADD MSTORE PUSH19 0x36B9B39739B2B73232B910109E9037BBB732B9 PUSH1 0x69 SHL PUSH1 0x44 DUP3 ADD MSTORE PUSH1 0x64 ADD PUSH2 0x451 JUMP JUMPDEST PUSH2 0xED1 ADDRESS DUP5 DUP5 PUSH1 0x40 MLOAD DUP1 PUSH1 0x20 ADD PUSH1 0x40 MSTORE DUP1 PUSH1 0x0 DUP2 MSTORE POP PUSH2 0x1204 JUMP JUMPDEST POP PUSH1 0x1 SWAP3 SWAP2 POP POP JUMP JUMPDEST EXTCODESIZE ISZERO ISZERO SWAP1 JUMP JUMPDEST DUP2 MLOAD DUP4 MLOAD EQ PUSH2 0xF42 JUMPI PUSH1 0x40 MLOAD PUSH3 0x461BCD PUSH1 0xE5 SHL DUP2 MSTORE PUSH1 0x20 PUSH1 0x4 DUP3 ADD MSTORE PUSH1 0x28 PUSH1 0x24 DUP3 ADD MSTORE PUSH32 0x455243313135353A2069647320616E6420616D6F756E7473206C656E67746820 PUSH1 0x44 DUP3 ADD MSTORE PUSH8 0xDAD2E6DAC2E8C6D PUSH1 0xC3 SHL PUSH1 0x64 DUP3 ADD MSTORE PUSH1 0x84 ADD PUSH2 0x451 JUMP JUMPDEST PUSH1 0x1 PUSH1 0x1 PUSH1 0xA0 SHL SUB DUP5 AND PUSH2 0xF68 JUMPI PUSH1 0x40 MLOAD PUSH3 0x461BCD PUSH1 0xE5 SHL DUP2 MSTORE PUSH1 0x4 ADD PUSH2 0x451 SWAP1 PUSH2 0x1BA9 JUMP JUMPDEST CALLER PUSH1 0x0 JUMPDEST DUP5 MLOAD DUP2 LT ISZERO PUSH2 0x104F JUMPI PUSH1 0x0 DUP6 DUP3 DUP2 MLOAD DUP2 LT PUSH2 0xF89 JUMPI PUSH2 0xF89 PUSH2 0x1D24 JUMP JUMPDEST PUSH1 0x20 MUL PUSH1 0x20 ADD ADD MLOAD SWAP1 POP PUSH1 0x0 DUP6 DUP4 DUP2 MLOAD DUP2 LT PUSH2 0xFA7 JUMPI PUSH2 0xFA7 PUSH2 0x1D24 JUMP JUMPDEST PUSH1 0x20 SWAP1 DUP2 MUL SWAP2 SWAP1 SWAP2 ADD DUP2 ADD MLOAD PUSH1 0x0 DUP5 DUP2 MSTORE DUP1 DUP4 MSTORE PUSH1 0x40 DUP1 DUP3 KECCAK256 PUSH1 0x1 PUSH1 0x1 PUSH1 0xA0 SHL SUB DUP15 AND DUP4 MSTORE SWAP1 SWAP4 MSTORE SWAP2 SWAP1 SWAP2 KECCAK256 SLOAD SWAP1 SWAP2 POP DUP2 DUP2 LT ISZERO PUSH2 0xFF7 JUMPI PUSH1 0x40 MLOAD PUSH3 0x461BCD PUSH1 0xE5 SHL DUP2 MSTORE PUSH1 0x4 ADD PUSH2 0x451 SWAP1 PUSH2 0x1BEE JUMP JUMPDEST PUSH1 0x0 DUP4 DUP2 MSTORE PUSH1 0x20 DUP2 DUP2 MSTORE PUSH1 0x40 DUP1 DUP4 KECCAK256 PUSH1 0x1 PUSH1 0x1 PUSH1 0xA0 SHL SUB DUP15 DUP2 AND DUP6 MSTORE SWAP3 MSTORE DUP1 DUP4 KECCAK256 DUP6 DUP6 SUB SWAP1 SSTORE SWAP1 DUP12 AND DUP3 MSTORE DUP2 KECCAK256 DUP1 SLOAD DUP5 SWAP3 SWAP1 PUSH2 0x1034 SWAP1 DUP5 SWAP1 PUSH2 0x1C5C JUMP JUMPDEST SWAP3 POP POP DUP2 SWAP1 SSTORE POP POP POP POP DUP1 PUSH2 0x1048 SWAP1 PUSH2 0x1CF3 JUMP JUMPDEST SWAP1 POP PUSH2 0xF6C JUMP JUMPDEST POP DUP5 PUSH1 0x1 PUSH1 0x1 PUSH1 0xA0 SHL SUB AND DUP7 PUSH1 0x1 PUSH1 0x1 PUSH1 0xA0 SHL SUB AND DUP3 PUSH1 0x1 PUSH1 0x1 PUSH1 0xA0 SHL SUB AND PUSH32 0x4A39DC06D4C0DBC64B70AF90FD698A233A518AA5D07E595D983B8C0526C8F7FB DUP8 DUP8 PUSH1 0x40 MLOAD PUSH2 0x109F SWAP3 SWAP2 SWAP1 PUSH2 0x1B20 JUMP JUMPDEST PUSH1 0x40 MLOAD DUP1 SWAP2 SUB SWAP1 LOG4 PUSH2 0x10B5 DUP2 DUP8 DUP8 DUP8 DUP8 DUP8 PUSH2 0x1305 JUMP JUMPDEST POP POP POP POP POP POP JUMP JUMPDEST PUSH2 0x10DA ADDRESS DUP4 DUP4 PUSH1 0x1 PUSH1 0x40 MLOAD DUP1 PUSH1 0x20 ADD PUSH1 0x40 MSTORE DUP1 PUSH1 0x0 DUP2 MSTORE POP PUSH2 0x10DE JUMP JUMPDEST POP POP JUMP JUMPDEST PUSH1 0x1 PUSH1 0x1 PUSH1 0xA0 SHL SUB DUP5 AND PUSH2 0x1104 JUMPI PUSH1 0x40 MLOAD PUSH3 0x461BCD PUSH1 0xE5 SHL DUP2 MSTORE PUSH1 0x4 ADD PUSH2 0x451 SWAP1 PUSH2 0x1BA9 JUMP JUMPDEST CALLER PUSH2 0x111D DUP2 DUP8 DUP8 PUSH2 0x1114 DUP9 PUSH2 0x1470 JUMP JUMPDEST PUSH2 0x5F7 DUP9 PUSH2 0x1470 JUMP JUMPDEST PUSH1 0x0 DUP5 DUP2 MSTORE PUSH1 0x20 DUP2 DUP2 MSTORE PUSH1 0x40 DUP1 DUP4 KECCAK256 PUSH1 0x1 PUSH1 0x1 PUSH1 0xA0 SHL SUB DUP11 AND DUP5 MSTORE SWAP1 SWAP2 MSTORE SWAP1 KECCAK256 SLOAD DUP4 DUP2 LT ISZERO PUSH2 0x115E JUMPI PUSH1 0x40 MLOAD PUSH3 0x461BCD PUSH1 0xE5 SHL DUP2 MSTORE PUSH1 0x4 ADD PUSH2 0x451 SWAP1 PUSH2 0x1BEE JUMP JUMPDEST PUSH1 0x0 DUP6 DUP2 MSTORE PUSH1 0x20 DUP2 DUP2 MSTORE PUSH1 0x40 DUP1 DUP4 KECCAK256 PUSH1 0x1 PUSH1 0x1 PUSH1 0xA0 SHL SUB DUP12 DUP2 AND DUP6 MSTORE SWAP3 MSTORE DUP1 DUP4 KECCAK256 DUP8 DUP6 SUB SWAP1 SSTORE SWAP1 DUP9 AND DUP3 MSTORE DUP2 KECCAK256 DUP1 SLOAD DUP7 SWAP3 SWAP1 PUSH2 0x119B SWAP1 DUP5 SWAP1 PUSH2 0x1C5C JUMP JUMPDEST SWAP1 SWAP2 SSTORE POP POP PUSH1 0x40 DUP1 MLOAD DUP7 DUP2 MSTORE PUSH1 0x20 DUP2 ADD DUP7 SWAP1 MSTORE PUSH1 0x1 PUSH1 0x1 PUSH1 0xA0 SHL SUB DUP1 DUP10 AND SWAP3 DUP11 DUP3 AND SWAP3 SWAP2 DUP7 AND SWAP2 PUSH32 0xC3D58168C5AE7397731D063D5BBF3D657854427343F4C083240F7AACAA2D0F62 SWAP2 ADD PUSH1 0x40 MLOAD DUP1 SWAP2 SUB SWAP1 LOG4 PUSH2 0x11FB DUP3 DUP9 DUP9 DUP9 DUP9 DUP9 PUSH2 0x14BB JUMP JUMPDEST POP POP POP POP POP POP POP JUMP JUMPDEST PUSH1 0x1 PUSH1 0x1 PUSH1 0xA0 SHL SUB DUP5 AND PUSH2 0x1264 JUMPI PUSH1 0x40 MLOAD PUSH3 0x461BCD PUSH1 0xE5 SHL DUP2 MSTORE PUSH1 0x20 PUSH1 0x4 DUP3 ADD MSTORE PUSH1 0x21 PUSH1 0x24 DUP3 ADD MSTORE PUSH32 0x455243313135353A206D696E7420746F20746865207A65726F20616464726573 PUSH1 0x44 DUP3 ADD MSTORE PUSH1 0x73 PUSH1 0xF8 SHL PUSH1 0x64 DUP3 ADD MSTORE PUSH1 0x84 ADD PUSH2 0x451 JUMP JUMPDEST CALLER PUSH2 0x1275 DUP2 PUSH1 0x0 DUP8 PUSH2 0x1114 DUP9 PUSH2 0x1470 JUMP JUMPDEST PUSH1 0x0 DUP5 DUP2 MSTORE PUSH1 0x20 DUP2 DUP2 MSTORE PUSH1 0x40 DUP1 DUP4 KECCAK256 PUSH1 0x1 PUSH1 0x1 PUSH1 0xA0 SHL SUB DUP10 AND DUP5 MSTORE SWAP1 SWAP2 MSTORE DUP2 KECCAK256 DUP1 SLOAD DUP6 SWAP3 SWAP1 PUSH2 0x12A5 SWAP1 DUP5 SWAP1 PUSH2 0x1C5C JUMP JUMPDEST SWAP1 SWAP2 SSTORE POP POP PUSH1 0x40 DUP1 MLOAD DUP6 DUP2 MSTORE PUSH1 0x20 DUP2 ADD DUP6 SWAP1 MSTORE PUSH1 0x1 PUSH1 0x1 PUSH1 0xA0 SHL SUB DUP1 DUP9 AND SWAP3 PUSH1 0x0 SWAP3 SWAP2 DUP6 AND SWAP2 PUSH32 0xC3D58168C5AE7397731D063D5BBF3D657854427343F4C083240F7AACAA2D0F62 SWAP2 ADD PUSH1 0x40 MLOAD DUP1 SWAP2 SUB SWAP1 LOG4 PUSH2 0x5F7 DUP2 PUSH1 0x0 DUP8 DUP8 DUP8 DUP8 PUSH2 0x14BB JUMP JUMPDEST PUSH1 0x1 PUSH1 0x1 PUSH1 0xA0 SHL SUB DUP5 AND EXTCODESIZE ISZERO PUSH2 0x10B5 JUMPI PUSH1 0x40 MLOAD PUSH4 0xBC197C81 PUSH1 0xE0 SHL DUP2 MSTORE PUSH1 0x1 PUSH1 0x1 PUSH1 0xA0 SHL SUB DUP6 AND SWAP1 PUSH4 0xBC197C81 SWAP1 PUSH2 0x1349 SWAP1 DUP10 SWAP1 DUP10 SWAP1 DUP9 SWAP1 DUP9 SWAP1 DUP9 SWAP1 PUSH1 0x4 ADD PUSH2 0x1A6A JUMP JUMPDEST PUSH1 0x20 PUSH1 0x40 MLOAD DUP1 DUP4 SUB DUP2 PUSH1 0x0 DUP8 DUP1 EXTCODESIZE ISZERO DUP1 ISZERO PUSH2 0x1363 JUMPI PUSH1 0x0 DUP1 REVERT JUMPDEST POP GAS CALL SWAP3 POP POP POP DUP1 ISZERO PUSH2 0x1393 JUMPI POP PUSH1 0x40 DUP1 MLOAD PUSH1 0x1F RETURNDATASIZE SWAP1 DUP2 ADD PUSH1 0x1F NOT AND DUP3 ADD SWAP1 SWAP3 MSTORE PUSH2 0x1390 SWAP2 DUP2 ADD SWAP1 PUSH2 0x195C JUMP JUMPDEST PUSH1 0x1 JUMPDEST PUSH2 0x1440 JUMPI PUSH2 0x139F PUSH2 0x1D50 JUMP JUMPDEST DUP1 PUSH4 0x8C379A0 EQ ISZERO PUSH2 0x13D9 JUMPI POP PUSH2 0x13B4 PUSH2 0x1D6C JUMP JUMPDEST DUP1 PUSH2 0x13BF JUMPI POP PUSH2 0x13DB JUMP JUMPDEST DUP1 PUSH1 0x40 MLOAD PUSH3 0x461BCD PUSH1 0xE5 SHL DUP2 MSTORE PUSH1 0x4 ADD PUSH2 0x451 SWAP2 SWAP1 PUSH2 0x1B4E JUMP JUMPDEST POP JUMPDEST PUSH1 0x40 MLOAD PUSH3 0x461BCD PUSH1 0xE5 SHL DUP2 MSTORE PUSH1 0x20 PUSH1 0x4 DUP3 ADD MSTORE PUSH1 0x34 PUSH1 0x24 DUP3 ADD MSTORE PUSH32 0x455243313135353A207472616E7366657220746F206E6F6E2045524331313535 PUSH1 0x44 DUP3 ADD MSTORE PUSH20 0x2932B1B2B4BB32B91034B6B83632B6B2B73A32B9 PUSH1 0x61 SHL PUSH1 0x64 DUP3 ADD MSTORE PUSH1 0x84 ADD PUSH2 0x451 JUMP JUMPDEST PUSH1 0x1 PUSH1 0x1 PUSH1 0xE0 SHL SUB NOT DUP2 AND PUSH4 0xBC197C81 PUSH1 0xE0 SHL EQ PUSH2 0x11FB JUMPI PUSH1 0x40 MLOAD PUSH3 0x461BCD PUSH1 0xE5 SHL DUP2 MSTORE PUSH1 0x4 ADD PUSH2 0x451 SWAP1 PUSH2 0x1B61 JUMP JUMPDEST PUSH1 0x40 DUP1 MLOAD PUSH1 0x1 DUP1 DUP3 MSTORE DUP2 DUP4 ADD SWAP1 SWAP3 MSTORE PUSH1 0x60 SWAP2 PUSH1 0x0 SWAP2 SWAP1 PUSH1 0x20 DUP1 DUP4 ADD SWAP1 DUP1 CALLDATASIZE DUP4 CALLDATACOPY ADD SWAP1 POP POP SWAP1 POP DUP3 DUP2 PUSH1 0x0 DUP2 MLOAD DUP2 LT PUSH2 0x14AA JUMPI PUSH2 0x14AA PUSH2 0x1D24 JUMP JUMPDEST PUSH1 0x20 SWAP1 DUP2 MUL SWAP2 SWAP1 SWAP2 ADD ADD MSTORE SWAP3 SWAP2 POP POP JUMP JUMPDEST PUSH1 0x1 PUSH1 0x1 PUSH1 0xA0 SHL SUB DUP5 AND EXTCODESIZE ISZERO PUSH2 0x10B5 JUMPI PUSH1 0x40 MLOAD PUSH4 0xF23A6E61 PUSH1 0xE0 SHL DUP2 MSTORE PUSH1 0x1 PUSH1 0x1 PUSH1 0xA0 SHL SUB DUP6 AND SWAP1 PUSH4 0xF23A6E61 SWAP1 PUSH2 0x14FF SWAP1 DUP10 SWAP1 DUP10 SWAP1 DUP9 SWAP1 DUP9 SWAP1 DUP9 SWAP1 PUSH1 0x4 ADD PUSH2 0x1AC8 JUMP JUMPDEST PUSH1 0x20 PUSH1 0x40 MLOAD DUP1 DUP4 SUB DUP2 PUSH1 0x0 DUP8 DUP1 EXTCODESIZE ISZERO DUP1 ISZERO PUSH2 0x1519 JUMPI PUSH1 0x0 DUP1 REVERT JUMPDEST POP GAS CALL SWAP3 POP POP POP DUP1 ISZERO PUSH2 0x1549 JUMPI POP PUSH1 0x40 DUP1 MLOAD PUSH1 0x1F RETURNDATASIZE SWAP1 DUP2 ADD PUSH1 0x1F NOT AND DUP3 ADD SWAP1 SWAP3 MSTORE PUSH2 0x1546 SWAP2 DUP2 ADD SWAP1 PUSH2 0x195C JUMP JUMPDEST PUSH1 0x1 JUMPDEST PUSH2 0x1555 JUMPI PUSH2 0x139F PUSH2 0x1D50 JUMP JUMPDEST PUSH1 0x1 PUSH1 0x1 PUSH1 0xE0 SHL SUB NOT DUP2 AND PUSH4 0xF23A6E61 PUSH1 0xE0 SHL EQ PUSH2 0x11FB JUMPI PUSH1 0x40 MLOAD PUSH3 0x461BCD PUSH1 0xE5 SHL DUP2 MSTORE PUSH1 0x4 ADD PUSH2 0x451 SWAP1 PUSH2 0x1B61 JUMP JUMPDEST DUP1 CALLDATALOAD PUSH1 0x1 PUSH1 0x1 PUSH1 0xA0 SHL SUB DUP2 AND DUP2 EQ PUSH2 0x159C JUMPI PUSH1 0x0 DUP1 REVERT JUMPDEST SWAP2 SWAP1 POP JUMP JUMPDEST PUSH1 0x0 DUP3 PUSH1 0x1F DUP4 ADD SLT PUSH2 0x15B2 JUMPI PUSH1 0x0 DUP1 REVERT JUMPDEST DUP2 CALLDATALOAD PUSH1 0x20 PUSH2 0x15BF DUP3 PUSH2 0x1C38 JUMP JUMPDEST PUSH1 0x40 MLOAD PUSH2 0x15CC DUP3 DUP3 PUSH2 0x1CC6 JUMP JUMPDEST DUP4 DUP2 MSTORE DUP3 DUP2 ADD SWAP2 POP DUP6 DUP4 ADD PUSH1 0x5 DUP6 SWAP1 SHL DUP8 ADD DUP5 ADD DUP9 LT ISZERO PUSH2 0x15EC JUMPI PUSH1 0x0 DUP1 REVERT JUMPDEST PUSH1 0x0 JUMPDEST DUP6 DUP2 LT ISZERO PUSH2 0x160B JUMPI DUP2 CALLDATALOAD DUP5 MSTORE SWAP3 DUP5 ADD SWAP3 SWAP1 DUP5 ADD SWAP1 PUSH1 0x1 ADD PUSH2 0x15EF JUMP JUMPDEST POP SWAP1 SWAP8 SWAP7 POP POP POP POP POP POP POP JUMP JUMPDEST PUSH1 0x0 DUP3 PUSH1 0x1F DUP4 ADD SLT PUSH2 0x1629 JUMPI PUSH1 0x0 DUP1 REVERT JUMPDEST DUP2 CALLDATALOAD PUSH8 0xFFFFFFFFFFFFFFFF DUP2 GT ISZERO PUSH2 0x1643 JUMPI PUSH2 0x1643 PUSH2 0x1D3A JUMP JUMPDEST PUSH1 0x40 MLOAD PUSH2 0x165A PUSH1 0x1F DUP4 ADD PUSH1 0x1F NOT AND PUSH1 0x20 ADD DUP3 PUSH2 0x1CC6 JUMP JUMPDEST DUP2 DUP2 MSTORE DUP5 PUSH1 0x20 DUP4 DUP7 ADD ADD GT ISZERO PUSH2 0x166F JUMPI PUSH1 0x0 DUP1 REVERT JUMPDEST DUP2 PUSH1 0x20 DUP6 ADD PUSH1 0x20 DUP4 ADD CALLDATACOPY PUSH1 0x0 SWAP2 DUP2 ADD PUSH1 0x20 ADD SWAP2 SWAP1 SWAP2 MSTORE SWAP4 SWAP3 POP POP POP JUMP JUMPDEST PUSH1 0x0 PUSH1 0x20 DUP3 DUP5 SUB SLT ISZERO PUSH2 0x169E JUMPI PUSH1 0x0 DUP1 REVERT JUMPDEST PUSH2 0x16A7 DUP3 PUSH2 0x1585 JUMP JUMPDEST SWAP4 SWAP3 POP POP POP JUMP JUMPDEST PUSH1 0x0 DUP1 PUSH1 0x40 DUP4 DUP6 SUB SLT ISZERO PUSH2 0x16C1 JUMPI PUSH1 0x0 DUP1 REVERT JUMPDEST PUSH2 0x16CA DUP4 PUSH2 0x1585 JUMP JUMPDEST SWAP2 POP PUSH2 0x16D8 PUSH1 0x20 DUP5 ADD PUSH2 0x1585 JUMP JUMPDEST SWAP1 POP SWAP3 POP SWAP3 SWAP1 POP JUMP JUMPDEST PUSH1 0x0 DUP1 PUSH1 0x0 DUP1 PUSH1 0x0 PUSH1 0xA0 DUP7 DUP9 SUB SLT ISZERO PUSH2 0x16F9 JUMPI PUSH1 0x0 DUP1 REVERT JUMPDEST PUSH2 0x1702 DUP7 PUSH2 0x1585 JUMP JUMPDEST SWAP5 POP PUSH2 0x1710 PUSH1 0x20 DUP8 ADD PUSH2 0x1585 JUMP JUMPDEST SWAP4 POP PUSH1 0x40 DUP7 ADD CALLDATALOAD PUSH8 0xFFFFFFFFFFFFFFFF DUP1 DUP3 GT ISZERO PUSH2 0x172D JUMPI PUSH1 0x0 DUP1 REVERT JUMPDEST PUSH2 0x1739 DUP10 DUP4 DUP11 ADD PUSH2 0x15A1 JUMP JUMPDEST SWAP5 POP PUSH1 0x60 DUP9 ADD CALLDATALOAD SWAP2 POP DUP1 DUP3 GT ISZERO PUSH2 0x174F JUMPI PUSH1 0x0 DUP1 REVERT JUMPDEST PUSH2 0x175B DUP10 DUP4 DUP11 ADD PUSH2 0x15A1 JUMP JUMPDEST SWAP4 POP PUSH1 0x80 DUP9 ADD CALLDATALOAD SWAP2 POP DUP1 DUP3 GT ISZERO PUSH2 0x1771 JUMPI PUSH1 0x0 DUP1 REVERT JUMPDEST POP PUSH2 0x177E DUP9 DUP3 DUP10 ADD PUSH2 0x1618 JUMP JUMPDEST SWAP2 POP POP SWAP3 SWAP6 POP SWAP3 SWAP6 SWAP1 SWAP4 POP JUMP JUMPDEST PUSH1 0x0 DUP1 PUSH1 0x0 DUP1 PUSH1 0x0 PUSH1 0xA0 DUP7 DUP9 SUB SLT ISZERO PUSH2 0x17A3 JUMPI PUSH1 0x0 DUP1 REVERT JUMPDEST PUSH2 0x17AC DUP7 PUSH2 0x1585 JUMP JUMPDEST SWAP5 POP PUSH2 0x17BA PUSH1 0x20 DUP8 ADD PUSH2 0x1585 JUMP JUMPDEST SWAP4 POP PUSH1 0x40 DUP7 ADD CALLDATALOAD SWAP3 POP PUSH1 0x60 DUP7 ADD CALLDATALOAD SWAP2 POP PUSH1 0x80 DUP7 ADD CALLDATALOAD PUSH8 0xFFFFFFFFFFFFFFFF DUP2 GT ISZERO PUSH2 0x17E4 JUMPI PUSH1 0x0 DUP1 REVERT JUMPDEST PUSH2 0x177E DUP9 DUP3 DUP10 ADD PUSH2 0x1618 JUMP JUMPDEST PUSH1 0x0 DUP1 PUSH1 0x40 DUP4 DUP6 SUB SLT ISZERO PUSH2 0x1803 JUMPI PUSH1 0x0 DUP1 REVERT JUMPDEST PUSH2 0x180C DUP4 PUSH2 0x1585 JUMP JUMPDEST SWAP2 POP PUSH1 0x20 DUP4 ADD CALLDATALOAD PUSH2 0x181C DUP2 PUSH2 0x1DF6 JUMP JUMPDEST DUP1 SWAP2 POP POP SWAP3 POP SWAP3 SWAP1 POP JUMP JUMPDEST PUSH1 0x0 DUP1 PUSH1 0x40 DUP4 DUP6 SUB SLT ISZERO PUSH2 0x183A JUMPI PUSH1 0x0 DUP1 REVERT JUMPDEST PUSH2 0x1843 DUP4 PUSH2 0x1585 JUMP JUMPDEST SWAP5 PUSH1 0x20 SWAP4 SWAP1 SWAP4 ADD CALLDATALOAD SWAP4 POP POP POP JUMP JUMPDEST PUSH1 0x0 DUP1 PUSH1 0x40 DUP4 DUP6 SUB SLT ISZERO PUSH2 0x1864 JUMPI PUSH1 0x0 DUP1 REVERT JUMPDEST DUP3 CALLDATALOAD PUSH8 0xFFFFFFFFFFFFFFFF DUP1 DUP3 GT ISZERO PUSH2 0x187C JUMPI PUSH1 0x0 DUP1 REVERT JUMPDEST DUP2 DUP6 ADD SWAP2 POP DUP6 PUSH1 0x1F DUP4 ADD SLT PUSH2 0x1890 JUMPI PUSH1 0x0 DUP1 REVERT JUMPDEST DUP2 CALLDATALOAD PUSH1 0x20 PUSH2 0x189D DUP3 PUSH2 0x1C38 JUMP JUMPDEST PUSH1 0x40 MLOAD PUSH2 0x18AA DUP3 DUP3 PUSH2 0x1CC6 JUMP JUMPDEST DUP4 DUP2 MSTORE DUP3 DUP2 ADD SWAP2 POP DUP6 DUP4 ADD PUSH1 0x5 DUP6 SWAP1 SHL DUP8 ADD DUP5 ADD DUP12 LT ISZERO PUSH2 0x18CA JUMPI PUSH1 0x0 DUP1 REVERT JUMPDEST PUSH1 0x0 SWAP7 POP JUMPDEST DUP5 DUP8 LT ISZERO PUSH2 0x18F4 JUMPI PUSH2 0x18E0 DUP2 PUSH2 0x1585 JUMP JUMPDEST DUP4 MSTORE PUSH1 0x1 SWAP7 SWAP1 SWAP7 ADD SWAP6 SWAP2 DUP4 ADD SWAP2 DUP4 ADD PUSH2 0x18CF JUMP JUMPDEST POP SWAP7 POP POP DUP7 ADD CALLDATALOAD SWAP3 POP POP DUP1 DUP3 GT ISZERO PUSH2 0x190B JUMPI PUSH1 0x0 DUP1 REVERT JUMPDEST POP PUSH2 0x1918 DUP6 DUP3 DUP7 ADD PUSH2 0x15A1 JUMP JUMPDEST SWAP2 POP POP SWAP3 POP SWAP3 SWAP1 POP JUMP JUMPDEST PUSH1 0x0 PUSH1 0x20 DUP3 DUP5 SUB SLT ISZERO PUSH2 0x1934 JUMPI PUSH1 0x0 DUP1 REVERT JUMPDEST DUP2 MLOAD PUSH2 0x16A7 DUP2 PUSH2 0x1DF6 JUMP JUMPDEST PUSH1 0x0 PUSH1 0x20 DUP3 DUP5 SUB SLT ISZERO PUSH2 0x1951 JUMPI PUSH1 0x0 DUP1 REVERT JUMPDEST DUP2 CALLDATALOAD PUSH2 0x16A7 DUP2 PUSH2 0x1E07 JUMP JUMPDEST PUSH1 0x0 PUSH1 0x20 DUP3 DUP5 SUB SLT ISZERO PUSH2 0x196E JUMPI PUSH1 0x0 DUP1 REVERT JUMPDEST DUP2 MLOAD PUSH2 0x16A7 DUP2 PUSH2 0x1E07 JUMP JUMPDEST PUSH1 0x0 PUSH1 0x20 DUP3 DUP5 SUB SLT ISZERO PUSH2 0x198B JUMPI PUSH1 0x0 DUP1 REVERT JUMPDEST POP CALLDATALOAD SWAP2 SWAP1 POP JUMP JUMPDEST PUSH1 0x0 DUP1 PUSH1 0x40 DUP4 DUP6 SUB SLT ISZERO PUSH2 0x19A5 JUMPI PUSH1 0x0 DUP1 REVERT JUMPDEST POP POP DUP1 CALLDATALOAD SWAP3 PUSH1 0x20 SWAP1 SWAP2 ADD CALLDATALOAD SWAP2 POP JUMP JUMPDEST PUSH1 0x0 DUP1 PUSH1 0x0 PUSH1 0x60 DUP5 DUP7 SUB SLT ISZERO PUSH2 0x19C9 JUMPI PUSH1 0x0 DUP1 REVERT JUMPDEST DUP4 MLOAD SWAP3 POP PUSH1 0x20 DUP5 ADD MLOAD SWAP2 POP PUSH1 0x40 DUP5 ADD MLOAD SWAP1 POP SWAP3 POP SWAP3 POP SWAP3 JUMP JUMPDEST PUSH1 0x0 DUP2 MLOAD DUP1 DUP5 MSTORE PUSH1 0x20 DUP1 DUP6 ADD SWAP5 POP DUP1 DUP5 ADD PUSH1 0x0 JUMPDEST DUP4 DUP2 LT ISZERO PUSH2 0x1A12 JUMPI DUP2 MLOAD DUP8 MSTORE SWAP6 DUP3 ADD SWAP6 SWAP1 DUP3 ADD SWAP1 PUSH1 0x1 ADD PUSH2 0x19F6 JUMP JUMPDEST POP SWAP5 SWAP6 SWAP5 POP POP POP POP POP JUMP JUMPDEST PUSH1 0x0 DUP2 MLOAD DUP1 DUP5 MSTORE PUSH1 0x0 JUMPDEST DUP2 DUP2 LT ISZERO PUSH2 0x1A43 JUMPI PUSH1 0x20 DUP2 DUP6 ADD DUP2 ADD MLOAD DUP7 DUP4 ADD DUP3 ADD MSTORE ADD PUSH2 0x1A27 JUMP JUMPDEST DUP2 DUP2 GT ISZERO PUSH2 0x1A55 JUMPI PUSH1 0x0 PUSH1 0x20 DUP4 DUP8 ADD ADD MSTORE JUMPDEST POP PUSH1 0x1F ADD PUSH1 0x1F NOT AND SWAP3 SWAP1 SWAP3 ADD PUSH1 0x20 ADD SWAP3 SWAP2 POP POP JUMP JUMPDEST PUSH1 0x1 PUSH1 0x1 PUSH1 0xA0 SHL SUB DUP7 DUP2 AND DUP3 MSTORE DUP6 AND PUSH1 0x20 DUP3 ADD MSTORE PUSH1 0xA0 PUSH1 0x40 DUP3 ADD DUP2 SWAP1 MSTORE PUSH1 0x0 SWAP1 PUSH2 0x1A96 SWAP1 DUP4 ADD DUP7 PUSH2 0x19E2 JUMP JUMPDEST DUP3 DUP2 SUB PUSH1 0x60 DUP5 ADD MSTORE PUSH2 0x1AA8 DUP2 DUP7 PUSH2 0x19E2 JUMP JUMPDEST SWAP1 POP DUP3 DUP2 SUB PUSH1 0x80 DUP5 ADD MSTORE PUSH2 0x1ABC DUP2 DUP6 PUSH2 0x1A1D JUMP JUMPDEST SWAP9 SWAP8 POP POP POP POP POP POP POP POP JUMP JUMPDEST PUSH1 0x1 PUSH1 0x1 PUSH1 0xA0 SHL SUB DUP7 DUP2 AND DUP3 MSTORE DUP6 AND PUSH1 0x20 DUP3 ADD MSTORE PUSH1 0x40 DUP2 ADD DUP5 SWAP1 MSTORE PUSH1 0x60 DUP2 ADD DUP4 SWAP1 MSTORE PUSH1 0xA0 PUSH1 0x80 DUP3 ADD DUP2 SWAP1 MSTORE PUSH1 0x0 SWAP1 PUSH2 0x1B02 SWAP1 DUP4 ADD DUP5 PUSH2 0x1A1D JUMP JUMPDEST SWAP8 SWAP7 POP POP POP POP POP POP POP JUMP JUMPDEST PUSH1 0x20 DUP2 MSTORE PUSH1 0x0 PUSH2 0x16A7 PUSH1 0x20 DUP4 ADD DUP5 PUSH2 0x19E2 JUMP JUMPDEST PUSH1 0x40 DUP2 MSTORE PUSH1 0x0 PUSH2 0x1B33 PUSH1 0x40 DUP4 ADD DUP6 PUSH2 0x19E2 JUMP JUMPDEST DUP3 DUP2 SUB PUSH1 0x20 DUP5 ADD MSTORE PUSH2 0x1B45 DUP2 DUP6 PUSH2 0x19E2 JUMP JUMPDEST SWAP6 SWAP5 POP POP POP POP POP JUMP JUMPDEST PUSH1 0x20 DUP2 MSTORE PUSH1 0x0 PUSH2 0x16A7 PUSH1 0x20 DUP4 ADD DUP5 PUSH2 0x1A1D JUMP JUMPDEST PUSH1 0x20 DUP1 DUP3 MSTORE PUSH1 0x28 SWAP1 DUP3 ADD MSTORE PUSH32 0x455243313135353A204552433131353552656365697665722072656A65637465 PUSH1 0x40 DUP3 ADD MSTORE PUSH8 0x6420746F6B656E73 PUSH1 0xC0 SHL PUSH1 0x60 DUP3 ADD MSTORE PUSH1 0x80 ADD SWAP1 JUMP JUMPDEST PUSH1 0x20 DUP1 DUP3 MSTORE PUSH1 0x25 SWAP1 DUP3 ADD MSTORE PUSH32 0x455243313135353A207472616E7366657220746F20746865207A65726F206164 PUSH1 0x40 DUP3 ADD MSTORE PUSH5 0x6472657373 PUSH1 0xD8 SHL PUSH1 0x60 DUP3 ADD MSTORE PUSH1 0x80 ADD SWAP1 JUMP JUMPDEST PUSH1 0x20 DUP1 DUP3 MSTORE PUSH1 0x2A SWAP1 DUP3 ADD MSTORE PUSH32 0x455243313135353A20696E73756666696369656E742062616C616E636520666F PUSH1 0x40 DUP3 ADD MSTORE PUSH10 0x39103A3930B739B332B9 PUSH1 0xB1 SHL PUSH1 0x60 DUP3 ADD MSTORE PUSH1 0x80 ADD SWAP1 JUMP JUMPDEST PUSH1 0x0 PUSH8 0xFFFFFFFFFFFFFFFF DUP3 GT ISZERO PUSH2 0x1C52 JUMPI PUSH2 0x1C52 PUSH2 0x1D3A JUMP JUMPDEST POP PUSH1 0x5 SHL PUSH1 0x20 ADD SWAP1 JUMP JUMPDEST PUSH1 0x0 DUP3 NOT DUP3 GT ISZERO PUSH2 0x1C6F JUMPI PUSH2 0x1C6F PUSH2 0x1D0E JUMP JUMPDEST POP ADD SWAP1 JUMP JUMPDEST PUSH1 0x0 DUP3 DUP3 LT ISZERO PUSH2 0x1C86 JUMPI PUSH2 0x1C86 PUSH2 0x1D0E JUMP JUMPDEST POP SUB SWAP1 JUMP JUMPDEST PUSH1 0x1 DUP2 DUP2 SHR SWAP1 DUP3 AND DUP1 PUSH2 0x1C9F JUMPI PUSH1 0x7F DUP3 AND SWAP2 POP JUMPDEST PUSH1 0x20 DUP3 LT DUP2 EQ ISZERO PUSH2 0x1CC0 JUMPI PUSH4 0x4E487B71 PUSH1 0xE0 SHL PUSH1 0x0 MSTORE PUSH1 0x22 PUSH1 0x4 MSTORE PUSH1 0x24 PUSH1 0x0 REVERT JUMPDEST POP SWAP2 SWAP1 POP JUMP JUMPDEST PUSH1 0x1F DUP3 ADD PUSH1 0x1F NOT AND DUP2 ADD PUSH8 0xFFFFFFFFFFFFFFFF DUP2 GT DUP3 DUP3 LT OR ISZERO PUSH2 0x1CEC JUMPI PUSH2 0x1CEC PUSH2 0x1D3A JUMP JUMPDEST PUSH1 0x40 MSTORE POP POP JUMP JUMPDEST PUSH1 0x0 PUSH1 0x0 NOT DUP3 EQ ISZERO PUSH2 0x1D07 JUMPI PUSH2 0x1D07 PUSH2 0x1D0E JUMP JUMPDEST POP PUSH1 0x1 ADD SWAP1 JUMP JUMPDEST PUSH4 0x4E487B71 PUSH1 0xE0 SHL PUSH1 0x0 MSTORE PUSH1 0x11 PUSH1 0x4 MSTORE PUSH1 0x24 PUSH1 0x0 REVERT JUMPDEST PUSH4 0x4E487B71 PUSH1 0xE0 SHL PUSH1 0x0 MSTORE PUSH1 0x32 PUSH1 0x4 MSTORE PUSH1 0x24 PUSH1 0x0 REVERT JUMPDEST PUSH4 0x4E487B71 PUSH1 0xE0 SHL PUSH1 0x0 MSTORE PUSH1 0x41 PUSH1 0x4 MSTORE PUSH1 0x24 PUSH1 0x0 REVERT JUMPDEST PUSH1 0x0 PUSH1 0x3 RETURNDATASIZE GT ISZERO PUSH2 0x1D69 JUMPI PUSH1 0x4 PUSH1 0x0 DUP1 RETURNDATACOPY POP PUSH1 0x0 MLOAD PUSH1 0xE0 SHR JUMPDEST SWAP1 JUMP JUMPDEST PUSH1 0x0 PUSH1 0x44 RETURNDATASIZE LT ISZERO PUSH2 0x1D7A JUMPI SWAP1 JUMP JUMPDEST PUSH1 0x40 MLOAD PUSH1 0x3 NOT RETURNDATASIZE DUP2 ADD PUSH1 0x4 DUP4 RETURNDATACOPY DUP2 MLOAD RETURNDATASIZE PUSH8 0xFFFFFFFFFFFFFFFF DUP2 PUSH1 0x24 DUP5 ADD GT DUP2 DUP5 GT OR ISZERO PUSH2 0x1DAA JUMPI POP POP POP POP POP SWAP1 JUMP JUMPDEST DUP3 DUP6 ADD SWAP2 POP DUP2 MLOAD DUP2 DUP2 GT ISZERO PUSH2 0x1DC2 JUMPI POP POP POP POP POP POP SWAP1 JUMP JUMPDEST DUP5 RETURNDATASIZE DUP8 ADD ADD PUSH1 0x20 DUP3 DUP6 ADD ADD GT ISZERO PUSH2 0x1DDC JUMPI POP POP POP POP POP POP SWAP1 JUMP JUMPDEST PUSH2 0x1DEB PUSH1 0x20 DUP3 DUP7 ADD ADD DUP8 PUSH2 0x1CC6 JUMP JUMPDEST POP SWAP1 SWAP6 SWAP5 POP POP POP POP POP JUMP JUMPDEST DUP1 ISZERO ISZERO DUP2 EQ PUSH2 0x1E04 JUMPI PUSH1 0x0 DUP1 REVERT JUMPDEST POP JUMP JUMPDEST PUSH1 0x1 PUSH1 0x1 PUSH1 0xE0 SHL SUB NOT DUP2 AND DUP2 EQ PUSH2 0x1E04 JUMPI PUSH1 0x0 DUP1 REVERT INVALID LOG2 PUSH5 0x6970667358 0x22 SLT KECCAK256 GAS 0xD0 LOG3 0xDE SHL 0xC5 0xCA SHL PUSH18 0xDB6DD7794E79C27C0386C0D30165F0FBEC03 0xAC SWAP13 DUP16 DUP2 BALANCE PUSH5 0x736F6C6343 STOP ADDMOD SMOD STOP CALLER "
		},
		"gasEstimates": {
			"creation": {
				"codeDepositCost": "1552600",
				"executionCost": "infinite",
				"totalCost": "infinite"
			},
			"external": {
				"balanceOf(address,uint256)": "1400",
				"balanceOfBatch(address[],uint256[])": "infinite",
				"increaseToken(uint256,uint256)": "infinite",
				"isApprovedForAll(address,address)": "infinite",
				"owner()": "1082",
				"pairContract()": "1127",
				"pledgeLevel1()": "1073",
				"pledgeLevel2()": "1052",
				"pledgeLevel3()": "1028",
				"pledgeLevel4()": "1074",
				"pledgeLevel5()": "1095",
				"pledgeLevel6()": "1095",
				"safeBatchTransferFrom(address,address,uint256[],uint256[],bytes)": "infinite",
				"safeTransferFrom(address,address,uint256,uint256,bytes)": "infinite",
				"setApprovalForAll(address,bool)": "23324",
				"supportsInterface(bytes4)": "600",
				"swapLevel1()": "1052",
				"swapLevel2()": "1096",
				"swapLevel3()": "1030",
				"swapLevel4()": "1094",
				"swapLevel5()": "1073",
				"swapLevel6()": "1029",
				"uniswapContract()": "1104",
				"uri(uint256)": "infinite",
				"userPledgeArr(address)": "2961",
				"withdrawLpToken()": "infinite",
				"withdrawNft(address,uint256)": "infinite"
			},
			"internal": {
				"_asSingletonArray(uint256)": "infinite",
				"_beforeTokenTransfer(address,address,address,uint256[] memory,uint256[] memory,bytes memory)": "infinite",
				"_burn(address,uint256,uint256)": "infinite",
				"_burnBatch(address,uint256[] memory,uint256[] memory)": "infinite",
				"_doSafeBatchTransferAcceptanceCheck(address,address,address,uint256[] memory,uint256[] memory,bytes memory)": "infinite",
				"_doSafeTransferAcceptanceCheck(address,address,address,uint256,uint256,bytes memory)": "infinite",
				"_mint(address,uint256,uint256,bytes memory)": "infinite",
				"_mintBatch(address,uint256[] memory,uint256[] memory,bytes memory)": "infinite",
				"_safeBatchTransferFrom(address,address,uint256[] memory,uint256[] memory,bytes memory)": "infinite",
				"_safeTransferFrom(address,address,uint256,uint256,bytes memory)": "infinite",
				"_setURI(string memory)": "infinite",
				"giveNft(address,uint256)": "infinite",
				"uint2str(uint256)": "infinite"
			}
		},
		"methodIdentifiers": {
			"balanceOf(address,uint256)": "00fdd58e",
			"balanceOfBatch(address[],uint256[])": "4e1273f4",
			"increaseToken(uint256,uint256)": "fcd81503",
			"isApprovedForAll(address,address)": "e985e9c5",
			"owner()": "8da5cb5b",
			"pairContract()": "4d709adf",
			"pledgeLevel1()": "a36dc507",
			"pledgeLevel2()": "713a88d6",
			"pledgeLevel3()": "f1dbda5e",
			"pledgeLevel4()": "82b4681d",
			"pledgeLevel5()": "b47f0bd4",
			"pledgeLevel6()": "5ffdb139",
			"safeBatchTransferFrom(address,address,uint256[],uint256[],bytes)": "2eb2c2d6",
			"safeTransferFrom(address,address,uint256,uint256,bytes)": "f242432a",
			"setApprovalForAll(address,bool)": "a22cb465",
			"supportsInterface(bytes4)": "01ffc9a7",
			"swapLevel1()": "4312d189",
			"swapLevel2()": "1ca2bd88",
			"swapLevel3()": "01e1200e",
			"swapLevel4()": "fe8c6d33",
			"swapLevel5()": "5ca5a3f4",
			"swapLevel6()": "c434439f",
			"uniswapContract()": "5abea7dc",
			"uri(uint256)": "0e89341c",
			"userPledgeArr(address)": "3b8abcba",
			"withdrawLpToken()": "6ced64e0",
			"withdrawNft(address,uint256)": "d8fc6519"
		}
	},
	"abi": [
		{
			"inputs": [
				{
					"internalType": "string",
					"name": "uri_",
					"type": "string"
				},
				{
					"internalType": "address",
					"name": "_uniswapContract",
					"type": "address"
				},
				{
					"internalType": "address",
					"name": "_pairContract",
					"type": "address"
				}
			],
			"stateMutability": "nonpayable",
			"type": "constructor"
		},
		{
			"anonymous": false,
			"inputs": [
				{
					"indexed": true,
					"internalType": "address",
					"name": "account",
					"type": "address"
				},
				{
					"indexed": true,
					"internalType": "address",
					"name": "operator",
					"type": "address"
				},
				{
					"indexed": false,
					"internalType": "bool",
					"name": "approved",
					"type": "bool"
				}
			],
			"name": "ApprovalForAll",
			"type": "event"
		},
		{
			"anonymous": false,
			"inputs": [
				{
					"indexed": true,
					"internalType": "address",
					"name": "operator",
					"type": "address"
				},
				{
					"indexed": true,
					"internalType": "address",
					"name": "from",
					"type": "address"
				},
				{
					"indexed": true,
					"internalType": "address",
					"name": "to",
					"type": "address"
				},
				{
					"indexed": false,
					"internalType": "uint256[]",
					"name": "ids",
					"type": "uint256[]"
				},
				{
					"indexed": false,
					"internalType": "uint256[]",
					"name": "values",
					"type": "uint256[]"
				}
			],
			"name": "TransferBatch",
			"type": "event"
		},
		{
			"anonymous": false,
			"inputs": [
				{
					"indexed": true,
					"internalType": "address",
					"name": "operator",
					"type": "address"
				},
				{
					"indexed": true,
					"internalType": "address",
					"name": "from",
					"type": "address"
				},
				{
					"indexed": true,
					"internalType": "address",
					"name": "to",
					"type": "address"
				},
				{
					"indexed": false,
					"internalType": "uint256",
					"name": "id",
					"type": "uint256"
				},
				{
					"indexed": false,
					"internalType": "uint256",
					"name": "value",
					"type": "uint256"
				}
			],
			"name": "TransferSingle",
			"type": "event"
		},
		{
			"anonymous": false,
			"inputs": [
				{
					"indexed": false,
					"internalType": "string",
					"name": "value",
					"type": "string"
				},
				{
					"indexed": true,
					"internalType": "uint256",
					"name": "id",
					"type": "uint256"
				}
			],
			"name": "URI",
			"type": "event"
		},
		{
			"inputs": [
				{
					"internalType": "address",
					"name": "account",
					"type": "address"
				},
				{
					"internalType": "uint256",
					"name": "id",
					"type": "uint256"
				}
			],
			"name": "balanceOf",
			"outputs": [
				{
					"internalType": "uint256",
					"name": "",
					"type": "uint256"
				}
			],
			"stateMutability": "view",
			"type": "function"
		},
		{
			"inputs": [
				{
					"internalType": "address[]",
					"name": "accounts",
					"type": "address[]"
				},
				{
					"internalType": "uint256[]",
					"name": "ids",
					"type": "uint256[]"
				}
			],
			"name": "balanceOfBatch",
			"outputs": [
				{
					"internalType": "uint256[]",
					"name": "",
					"type": "uint256[]"
				}
			],
			"stateMutability": "view",
			"type": "function"
		},
		{
			"inputs": [
				{
					"internalType": "uint256",
					"name": "id",
					"type": "uint256"
				},
				{
					"internalType": "uint256",
					"name": "amount",
					"type": "uint256"
				}
			],
			"name": "increaseToken",
			"outputs": [
				{
					"internalType": "bool",
					"name": "",
					"type": "bool"
				}
			],
			"stateMutability": "nonpayable",
			"type": "function"
		},
		{
			"inputs": [
				{
					"internalType": "address",
					"name": "account",
					"type": "address"
				},
				{
					"internalType": "address",
					"name": "operator",
					"type": "address"
				}
			],
			"name": "isApprovedForAll",
			"outputs": [
				{
					"internalType": "bool",
					"name": "",
					"type": "bool"
				}
			],
			"stateMutability": "view",
			"type": "function"
		},
		{
			"inputs": [],
			"name": "owner",
			"outputs": [
				{
					"internalType": "address",
					"name": "",
					"type": "address"
				}
			],
			"stateMutability": "view",
			"type": "function"
		},
		{
			"inputs": [],
			"name": "pairContract",
			"outputs": [
				{
					"internalType": "address",
					"name": "",
					"type": "address"
				}
			],
			"stateMutability": "view",
			"type": "function"
		},
		{
			"inputs": [],
			"name": "pledgeLevel1",
			"outputs": [
				{
					"internalType": "uint256",
					"name": "",
					"type": "uint256"
				}
			],
			"stateMutability": "view",
			"type": "function"
		},
		{
			"inputs": [],
			"name": "pledgeLevel2",
			"outputs": [
				{
					"internalType": "uint256",
					"name": "",
					"type": "uint256"
				}
			],
			"stateMutability": "view",
			"type": "function"
		},
		{
			"inputs": [],
			"name": "pledgeLevel3",
			"outputs": [
				{
					"internalType": "uint256",
					"name": "",
					"type": "uint256"
				}
			],
			"stateMutability": "view",
			"type": "function"
		},
		{
			"inputs": [],
			"name": "pledgeLevel4",
			"outputs": [
				{
					"internalType": "uint256",
					"name": "",
					"type": "uint256"
				}
			],
			"stateMutability": "view",
			"type": "function"
		},
		{
			"inputs": [],
			"name": "pledgeLevel5",
			"outputs": [
				{
					"internalType": "uint256",
					"name": "",
					"type": "uint256"
				}
			],
			"stateMutability": "view",
			"type": "function"
		},
		{
			"inputs": [],
			"name": "pledgeLevel6",
			"outputs": [
				{
					"internalType": "uint256",
					"name": "",
					"type": "uint256"
				}
			],
			"stateMutability": "view",
			"type": "function"
		},
		{
			"inputs": [
				{
					"internalType": "address",
					"name": "from",
					"type": "address"
				},
				{
					"internalType": "address",
					"name": "to",
					"type": "address"
				},
				{
					"internalType": "uint256[]",
					"name": "ids",
					"type": "uint256[]"
				},
				{
					"internalType": "uint256[]",
					"name": "amounts",
					"type": "uint256[]"
				},
				{
					"internalType": "bytes",
					"name": "data",
					"type": "bytes"
				}
			],
			"name": "safeBatchTransferFrom",
			"outputs": [],
			"stateMutability": "nonpayable",
			"type": "function"
		},
		{
			"inputs": [
				{
					"internalType": "address",
					"name": "from",
					"type": "address"
				},
				{
					"internalType": "address",
					"name": "to",
					"type": "address"
				},
				{
					"internalType": "uint256",
					"name": "id",
					"type": "uint256"
				},
				{
					"internalType": "uint256",
					"name": "amount",
					"type": "uint256"
				},
				{
					"internalType": "bytes",
					"name": "data",
					"type": "bytes"
				}
			],
			"name": "safeTransferFrom",
			"outputs": [],
			"stateMutability": "nonpayable",
			"type": "function"
		},
		{
			"inputs": [
				{
					"internalType": "address",
					"name": "operator",
					"type": "address"
				},
				{
					"internalType": "bool",
					"name": "approved",
					"type": "bool"
				}
			],
			"name": "setApprovalForAll",
			"outputs": [],
			"stateMutability": "nonpayable",
			"type": "function"
		},
		{
			"inputs": [
				{
					"internalType": "bytes4",
					"name": "interfaceId",
					"type": "bytes4"
				}
			],
			"name": "supportsInterface",
			"outputs": [
				{
					"internalType": "bool",
					"name": "",
					"type": "bool"
				}
			],
			"stateMutability": "view",
			"type": "function"
		},
		{
			"inputs": [],
			"name": "swapLevel1",
			"outputs": [
				{
					"internalType": "uint256",
					"name": "",
					"type": "uint256"
				}
			],
			"stateMutability": "view",
			"type": "function"
		},
		{
			"inputs": [],
			"name": "swapLevel2",
			"outputs": [
				{
					"internalType": "uint256",
					"name": "",
					"type": "uint256"
				}
			],
			"stateMutability": "view",
			"type": "function"
		},
		{
			"inputs": [],
			"name": "swapLevel3",
			"outputs": [
				{
					"internalType": "uint256",
					"name": "",
					"type": "uint256"
				}
			],
			"stateMutability": "view",
			"type": "function"
		},
		{
			"inputs": [],
			"name": "swapLevel4",
			"outputs": [
				{
					"internalType": "uint256",
					"name": "",
					"type": "uint256"
				}
			],
			"stateMutability": "view",
			"type": "function"
		},
		{
			"inputs": [],
			"name": "swapLevel5",
			"outputs": [
				{
					"internalType": "uint256",
					"name": "",
					"type": "uint256"
				}
			],
			"stateMutability": "view",
			"type": "function"
		},
		{
			"inputs": [],
			"name": "swapLevel6",
			"outputs": [
				{
					"internalType": "uint256",
					"name": "",
					"type": "uint256"
				}
			],
			"stateMutability": "view",
			"type": "function"
		},
		{
			"inputs": [],
			"name": "uniswapContract",
			"outputs": [
				{
					"internalType": "address",
					"name": "",
					"type": "address"
				}
			],
			"stateMutability": "view",
			"type": "function"
		},
		{
			"inputs": [
				{
					"internalType": "uint256",
					"name": "",
					"type": "uint256"
				}
			],
			"name": "uri",
			"outputs": [
				{
					"internalType": "string",
					"name": "",
					"type": "string"
				}
			],
			"stateMutability": "view",
			"type": "function"
		},
		{
			"inputs": [
				{
					"internalType": "address",
					"name": "",
					"type": "address"
				}
			],
			"name": "userPledgeArr",
			"outputs": [
				{
					"internalType": "bool",
					"name": "isPledge",
					"type": "bool"
				},
				{
					"internalType": "uint256",
					"name": "pledgeAmount",
					"type": "uint256"
				},
				{
					"internalType": "uint256",
					"name": "blockNumber",
					"type": "uint256"
				}
			],
			"stateMutability": "view",
			"type": "function"
		},
		{
			"inputs": [],
			"name": "withdrawLpToken",
			"outputs": [
				{
					"internalType": "bool",
					"name": "",
					"type": "bool"
				}
			],
			"stateMutability": "nonpayable",
			"type": "function"
		},
		{
			"inputs": [
				{
					"internalType": "address",
					"name": "to",
					"type": "address"
				},
				{
					"internalType": "uint256",
					"name": "level",
					"type": "uint256"
				}
			],
			"name": "withdrawNft",
			"outputs": [
				{
					"internalType": "bool",
					"name": "",
					"type": "bool"
				}
			],
			"stateMutability": "nonpayable",
			"type": "function"
		}
	]
}